:100000000C94A3010C94CB010C94CB010C946F05C0
:100010000C9499050C94C3050C94CB010C94CB0162
:100020000C94CB010C94CB010C94CB010C94CB0120
:100030000C94CB010C94CB010C94CB010C94CB0110
:100040000C94E30D0C94CB010C94620F0C94A90F4B
:100050000C94CB010C94CB010C94CB010C94CB01F0
:100060000C94340C0C94CB0100C20100010011006F
:1000700011000C0000E100000A002500250021000D
:10008000009600001900390039003600127A00008D
:100090001F004600460044008070000022004D0012
:1000A0004D004A00004B00003600750075007200DC
:1000B000403800004A009C009C0099008025000008
:1000C0007200EC00EC00E900C0120000E900DA0167
:1000D000DA01D70160090000D701B603B603B30304
:1000E000B0040000B3036E076E076B0758020000F0
:1000F0006E07DC0EDC0ED80E2C010000DC0EC11DDC
:10010000C11DBE1D000000000000005F00000007D0
:10011000000700147F147F14242A7F2A1223130857
:10012000646236495620500008070300001C224133
:10013000000041221C002A1C7F1C2A08083E0808D7
:100140000080703000080808080800006060002087
:10015000100804023E5149453E00427F400072496A
:100160004949462141494D331814127F102745450E
:1001700045393C4A49493141211109073649494924
:1001800036464949291E0000140000004034000092
:1001900000081422411414141414004122140802FB
:1001A000015909063E415D594E7C1211127C7F496E
:1001B0004949363E414141227F4141413E7F4949C3
:1001C00049417F090909013E414151737F080808EF
:1001D0007F00417F41002040413F017F08142241C0
:1001E0007F404040407F021C027F7F0408107F3E1A
:1001F0004141413E7F090909063E4151215E7F0987
:10020000192946264949493203017F01033F4040ED
:10021000403F1F2040201F3F4038403F63140814D8
:100220006303047804036159494D43007F41414110
:100230000204081020004141417F040201020440F1
:1002400040404040000307080020545478407F2875
:100250004444383844444428384444287F3854546B
:10026000541800087E090218A4A49C787F0804048E
:100270007800447D40002040403D007F102844002D
:1002800000417F40007C047804787C0804047838BE
:1002900044444438FC1824241818242418FC7C08EE
:1002A000040408485454542404043F44243C40406B
:1002B000207C1C2040201C3C4030403C442810281E
:1002C000444C9090907C4464544C44000836410067
:1002D0000000770000004136080002010204023CE1
:1002E0002623263C00000000240027002A000000EE
:1002F0000000250028002B0000000000230026003D
:100300002900040404040404040402020202020298
:1003100003030303030301020408102040800102C9
:100320000408102001020408102000000007000249
:100330000100000304060000000000000000F901B5
:100340002A0BE610F20111241FBECFEFD8E0DEBF6A
:10035000CDBF11E0A0E0B1E0E2E2F5E202C005901D
:100360000D92A63CB107D9F713E0A6ECB1E001C0AD
:100370001D92A53CB107E1F713E0C4E4D3E004C04B
:100380002297FE010E948012CE33D107C9F70E9446
:100390003C110C9484120C94000081309105C1F43E
:1003A0006F5F7F4FF1F41092C9011092C80181EA8A
:1003B00091E09093C7018093C60185E08093D101BD
:1003C0008FED91E06AE049E020E00E94580808952E
:1003D000892B39F46F5F7F4F21F48FED91E00E94FC
:1003E000DF06089580E090E06FEF7FEF0E94CD017F
:1003F000089581E090E06FEF7FEF0E94CD010895B6
:100400001F93CF93DF938091FB0191E08927809325
:10041000FB01882321F48091720160E003C0809188
:10042000720161E00E940D0FC4E8D1E08FED91E010
:1004300069910E94230781E0CD38D807B9F764EFAE
:1004400071E080E090E00DC08FED91E00E94E80641
:10045000899382E0C431D807B9F763E070E080E0A7
:1004600090E00E94660E8FED91E00E940907181639
:1004700019061CF4CBE0D2E0E7CF65E070E080E045
:1004800090E00E94660E80910B028F3F09F046C0FB
:1004900080910C02863809F041C090910D0280E0F5
:1004A00020910E02820F911D9093150280931402E9
:1004B00086EC91E065E040E00E94BA0811E01093FC
:1004C000CC011093CD0186EC91E060E071E00E94D8
:1004D0002E0A86EC91E065E048E10E94BA0810938C
:1004E000CC011093CD0186EC91E065E071E00E94B3
:1004F0002E0A86EC91E065E048E10E94BA0810936C
:10050000CC011093CD01609114027091150286EC1C
:1005100091E04AE050E00E94041231C086EC91E084
:1005200065E040E00E94BA0811E01093CC011093FE
:10053000CD0186EC91E060E071E00E942E0A86EC2D
:1005400091E065E048E10E94BA081093CC01109355
:10055000CD0186EC91E066E171E00E942E0A0FC0A9
:1005600083E293E00E947C10899382E0C630D80732
:10057000B9F763E070E080E090E00E94660E83E2ED
:1005800093E00E946010181619061CF4CDEFD1E01C
:10059000E7CF68EE73E080E090E00E94660E809105
:1005A000FD01853A09F049C0809105028A3509F0BC
:1005B00044C02091FE0180917001281731F4909180
:1005C000FF0180917101981731F02223B1F58091DC
:1005D000FF01882391F5809100028F3F71F5809192
:1005E00001028F3F51F5809102028F3F31F58091DA
:1005F00003028F3F11F5809104028F3FF1F4809147
:100600000B028F3FD1F480910C028638B1F48091B7
:100610000D0280937E0180910E0280937F01CBE7D3
:10062000D1E083E293E069910E94AA1081E0C4388E
:10063000D807B9F78FEF8093FD01DF91CF911F911C
:1006400008951F93CF93DF9368EE73E080E090E00E
:100650000E94660E83E293E040E855E260E070E0BD
:100660000E94D90F8FED91E040E855E260E070E024
:100670000E94ED058091720161E00E94CE0E809192
:10068000700180937C018091710180937D0186ECE3
:1006900091E00E945D0A86EC91E00E94E70986ECF9
:1006A00091E060E04CE10E94BA0811E01093CC01A7
:1006B0001093CD0186EC91E06CE171E00E942E0A6E
:1006C00086EC91E061E041E00E94BA081093CC0111
:1006D0001092CD0186EC91E069E271E00E942E0A51
:1006E00086EC91E062E040E00E94BA081093CC01F1
:1006F0001093CD0186EC91E063E471E00E942E0A34
:1007000086EC91E063E040E00E94BA081093CC01CF
:100710001093CD0186EC91E061E571E00E942E0A14
:1007200086EC91E064E040E00E94BA081093CC01AE
:100730001093CD0186EC91E061E671E00E942E0AF3
:1007400086EC91E064E048E40E94BA081093CC0182
:100750001093CD016091700162956F706A3014F052
:10076000695A01C0605D86EC91E00E94DE0886EC6B
:1007700091E064E04EE40E94BA0881E08093CC01ED
:100780008093CD01609170016F706A3014F0695AE6
:1007900001C0605D86EC91E00E94DE0886EC91E08D
:1007A00064E044E50E94BA0811E01093CC01109374
:1007B000CD0186EC91E06EE671E00E942E0A86EC97
:1007C00091E064E04AE50E94BA081093CC011093CE
:1007D000CD016091710162956F706A3014F0695AB1
:1007E00001C0605D86EC91E00E94DE0886EC91E03D
:1007F00064E040E60E94BA0881E08093CC018093D7
:10080000CD01609171016F706A3014F0695A01C0B6
:10081000605D86EC91E00E94DE08CFC0FE01EC58DE
:10082000FE4F83E293E060810E94AA102196C730B8
:10083000D105A4F368EE73E080E090E00DC083E2A0
:1008400093E00E947C10899382E0CB30D807B9F7FF
:1008500063E070E080E090E00E94660E83E293E047
:100860000E946010181619061CF4C6E0D2E0E7CF0B
:1008700068EE73E080E090E00E94660E80910602D0
:100880008A3A09F093C080910702833C09F08EC038
:1008900086EC91E062E04EE40E94BA0881E0809329
:1008A000CC018093CD016091090262956F706A302E
:1008B00014F0695A01C0605D86EC91E00E94DE0888
:1008C00086EC91E062E044E50E94BA0881E0809302
:1008D000CC018093CD01609109026F706A3014F0F1
:1008E000695A01C0605D86EC91E00E94DE0886ECEA
:1008F00091E062E04AE50E94BA0881E08093CC0171
:100900008093CD016091080262956F706A3014F097
:10091000695A01C0605D86EC91E00E94DE0886ECB9
:1009200091E062E040E60E94BA0881E08093CC0149
:100930008093CD01609108026F706A3014F0695A9B
:1009400001C0605D86EC91E00E94DE0886EC91E0DB
:1009500063E04AE50E94BA0881E08093CC0180936D
:10096000CD0160910A0262956F706A3014F0695A85
:1009700001C0605D86EC91E00E94DE0886EC91E0AB
:1009800063E040E60E94BA0881E08093CC01809346
:10099000CD0160910A026F706A3014F0695A01C08B
:1009A000605D86EC91E00E94DE082BC08091FC0126
:1009B0008F5F8093FC01833018F4C0E0D0E037CF24
:1009C00086EC91E062E04EE40E94BA0811E01093D8
:1009D000CC011093CD0186EC91E066E171E00E94BC
:1009E0002E0A86EC91E063E04AE50E94BA08109373
:1009F000CC011093CD0186EC91E066E171E00E949C
:100A00002E0ADF91CF911F9108950F931F93CF93DB
:100A1000DF93FC01738D76957170A685B7859585FA
:100A2000772329F08C91892309F454C004C08C9158
:100A3000892309F04FC08389948920E001972FEF23
:100A40008F3F9207D9F7C589D689A685B7851585C1
:100A500060E031E040E050E000E0CE01202F01975F
:100A60002FEF8F3F9207D9F78C91812311F0632BE1
:100A700003C0832F80956823330F4F5F5F4F48304B
:100A8000510559F78789908D20E001972FEF8F3F0F
:100A90009207D9F7711160958091580220915902FF
:100AA00090E001968F73907030E08217930779F091
:100AB000E0915802F0E0E85EFD4F608380915802BB
:100AC00090E001968F7390708093580203C0838DDD
:100AD0008160838FDF91CF911F910F9108951F92B5
:100AE0000F920FB60F9211242F933F934F935F9362
:100AF0006F937F938F939F93AF93BF93EF93FF93E6
:100B00008091160290911702009711F00E9405053E
:100B1000FF91EF91BF91AF919F918F917F916F91D5
:100B20005F914F913F912F910F900FBE0F901F90AB
:100B300018951F920F920FB60F9211242F933F9387
:100B40004F935F936F937F938F939F93AF93BF93D5
:100B5000EF93FF938091160290911702009711F086
:100B60000E940505FF91EF91BF91AF919F918F91E9
:100B70007F916F915F914F913F912F910F900FBE99
:100B80000F901F9018951F920F920FB60F9211247D
:100B90002F933F934F935F936F937F938F939F9385
:100BA000AF93BF93EF93FF9380911602909117023A
:100BB000009711F00E940505FF91EF91BF91AF9151
:100BC0009F918F917F916F915F914F913F912F9165
:100BD0000F900FBE0F901F901895CF92DF92EF925B
:100BE000FF920F931F93CF93DF93EC017A018B0158
:100BF0001A8E198E188E1F8A1E8A1D8A1C8A1B8ABD
:100C000020E030E06901CC0CDD1CC20ED31EB60121
:100C1000660F771F660F771FAB0148595F4FFA01C8
:100C200085919591A591B4918E159F05A007B10767
:100C3000E9F4FB01E459FF4F859194919C8B8B8BD8
:100C4000FB01E259FF4F859194919E8B8D8BFB01A7
:100C5000E059FF4F85919491988F8F8BFB01EE584F
:100C6000FF4F859194919A8F898F06C02F5F3F4FD8
:100C70002D30310509F0C6CF8F89988D892B09F465
:100C800049C04C85463108F03DC09091680048301D
:100C900010F484E005C04E3010F082E001C081E025
:100CA000892B80936800483028F4EDE6F0E0ADE64B
:100CB000B0E00BC04E3028F0ECE6F0E0ACE6B0E07F
:100CC00004C0EBE6F0E0ABE6B0E05081483040F421
:100CD00081E090E002C0880F991F4A95E2F710C0AA
:100CE000242F30E04E3018F42850304002C02E50EF
:100CF000304081E090E002C0880F991F2A95E2F70A
:100D0000852B8C93898D9A8D20E001972FEF8F3F53
:100D10009207D9F780911602909117028C179D07C0
:100D200081F08B8D8E7F8B8F9FB7F8941092580235
:100D30008091580280935902D0931702C0931602F3
:100D40009FBFDF91CF911F910F91FF90EF90DF90A8
:100D5000CF900895FC014485463180F5483028F451
:100D6000EDE6F0E0ADE6B0E00BC04E3028F4EBE687
:100D7000F0E0ABE6B0E004C0ECE6F0E0ACE6B0E0FA
:100D80005081483040F481E090E002C0880F991F04
:100D90004A95E2F710C0242F30E04E3018F4285066
:100DA000304002C02E50304081E090E002C0880FF9
:100DB000991F2A95E2F7809585238C930895FC016D
:100DC00081E991E091838083CF010E94AA06089572
:100DD00020911602309117022817390731F49091AB
:100DE000590280915802981719F42FEF3FEF0FC066
:100DF000E0915902F0E0E85EFD4F208180915902B8
:100E000090E001968F7390708093590230E0C90191
:100E1000089520911602309117022817390719F00A
:100E200020E030E00EC0809158022091590290E0FD
:100E3000805C9F4F821B910960E470E00E94491220
:100E40009C01C90108950F931F93DC0159968D9160
:100E50009C915A97892B49F481E090E013969C93DA
:100E60008E93129720E030E097C00FB7F8945B960E
:100E70008C915B975196ED91FC91529750962C91E5
:100E8000509781FF8DC08081822B808359968D91F0
:100E90009C915A97059620E001972FEF8F3F92077C
:100EA000D9F75B968C915B9781FF35C031E040E0CC
:100EB00050E070E010E0832F90E086239723519656
:100EC000ED91FC91529750962C915097892B29F0D7
:100ED000808120952823208303C08081822B8083FA
:100EE00059968D919C915A97212F01972FEF8F3F03
:100EF0009207D9F7330F4F5F5F4F48305105D9F64E
:100F00005196ED91FC915297908150968C9150970B
:100F10008095892333C031E040E050E070E010E07C
:100F2000832F90E0862397235196ED91FC91529761
:100F300050962C915097892B21F08081822B8083B1
:100F400004C0808120952823208359968D919C91FF
:100F50005A97212F01972FEF8F3F9207D9F7330F21
:100F60004F5F5F4F48305105D9F65196ED91FC9196
:100F70005297808150969C915097892B80830FBF08
:100F800059968D919C915A9720E001972FEF8F3FB2
:100F90009207D9F721E030E0C9011F910F91089520
:100FA000808120952823208371CF209116023091D3
:100FB00017022817390749F49FB7F894109258027E
:100FC00080915802809359029FBF08952091160284
:100FD000309117022817390731F490915902809106
:100FE0005802981719F42FEF3FEF0AC0E091590209
:100FF000F0E0E85EFD4F8081282F332727FD3095F4
:10100000C90108951F93CF93DF93EC01162F862F0C
:1010100060E00E94CE0E8B8D81FD04C0812F61E0C7
:101020000E940D0F1C87212F30E0C9018A5E9C4F62
:10103000FC0184918D872E5F3C4FF9016491E62F6E
:10104000F0E0EE0FFF1FE850FD4F859194919F87D0
:101050008E87DF91CF911F910895FF920F931F9379
:101060008C01F62E862F61E00E94CE0E8F2D61E05E
:101070000E940D0F8F2D90E0FC01EA5EFC4FE49181
:10108000D8015096EC9350978E5F9C4FFC01649171
:10109000E62FF0E0EE0FFF1FE251FD4F8591949196
:1010A00052969C938E9351971F910F91FF900895A4
:1010B000FF920F931F938C01F62EFC011382128274
:1010C00088EE93E0A0E0B0E084839583A683B783A5
:1010D00081E991E091838083148A138A168A158AA4
:1010E000108E178A128E118E838D2170220F8C7FA5
:1010F000822B838FC801642F0E942D08C8016F2D99
:101100000E9402081F910F91FF900895FF920F9384
:101110001F93F62E00EA12E0C8016CE370E00E9413
:10112000F00AC80160E40E94720BC8016F2D0E9492
:10113000720BC8010E94B50B1F910F91FF9008958B
:10114000FF920F931F93F62E00EA12E0C8016CE3A2
:1011500070E00E94F00AC80160E00E94720BC801B2
:101160006F2D0E94720BC8010E94B50B1F910F9149
:10117000FF9008950F931F93CF93DF93EC01142FEB
:10118000062F683008F007E017FD1FE70D831C836A
:10119000612F6F70CE010E94A00812951F70106120
:1011A000CE01612F0E94A008006BCE01602F0E942B
:1011B000A008DF91CF911F910F9108952F923F9238
:1011C0004F925F926F927F928F929F92AF92BF9257
:1011D000CF92DF92EF92FF920F931F93CF93DF9303
:1011E0007C01DC0116968C91169714960C9114973D
:1011F000813071F5095F14960C93862F80528036EA
:1012000008F06FE7605285E0689F800111240C5F51
:101210001E4FC0E0D0E0F801EC0FFD1FE491C701C4
:101220006E2F0E9486082196C530D105A1F710E0E7
:1012300009C0F70184818F5F8483C70160E00E9449
:1012400086081F5FD70117968C91181790F3AAC0D4
:10125000F701358085E0689FC0011124E0E64E2E3D
:10126000EFEF5E2E480E591ECC247CE0272E65E65B
:10127000662E6FEF762E680E791E81C0CC2DD0E0E1
:10128000D70115968C91992787FD90958C0F9D1FFE
:10129000803891050CF078C0CC2031F06C2D630DB6
:1012A000C701402F0E94BA084E0153E0880C991CD8
:1012B0005A95E1F7A82CA194E201FE01EC5FFE4FE4
:1012C000B490D7011696FC912F2F30E0C401B901DC
:1012D0000E94491281E090E002C0880F991F6A9530
:1012E000E2F7E82FC90143E0880F991F4A95E1F71B
:1012F000821B930B4A2D480FDD2421E01E2F1B215A
:1013000030E011C01111D22A220F4150842F90E0F9
:101310006F2F70E00E943512892B11F4EE0F05C07B
:10132000222329F03F5F3F1768F3222339F7B0905B
:10133000B8002092B80080EA92E06CE370E00E946E
:10134000F00A80EA92E060E40E94720B10E006C0AE
:1013500080EA92E06D2D0E94720B1F5FD7011696F6
:101360008C911817A8F380EA92E00E94B50BB09216
:10137000B8002196C615D70509F09FCFC394F70191
:101380002681C21608F47ACFD70117968C91080FE0
:1013900085E0289FC0011124080FC701632D402F4D
:1013A0000E94BA0881E090E0DF91CF911F910F91E8
:1013B000FF90EF90DF90CF90BF90AF909F908F9075
:1013C0007F906F905F904F903F902F9008950F9374
:1013D0001F93CF93DF938C0161E20E94A008C801A4
:1013E00060E00E94A008C8016FE70E94A008C80141
:1013F00062E20E94A008C80160E00E94A008C80143
:1014000067E00E94A0081091B8008CE08093B800BB
:10141000C0E0D0E080EA92E06CE370E00E94F00A65
:1014200080EA92E060E40E94720B00E080EA92E0C1
:1014300060E00E94720B0F5F0031C1F7609680EA96
:1014400092E00E94B50B84E0C030D80719F71093E2
:10145000B800DF91CF911F910F910895CF92DF9245
:10146000EF92FF920F931F93CF93DF936C017B0159
:10147000EB0109900020E9F72197C61BD70B00E08C
:1014800010E00EC0D601ED91FC91D701A00FB11F65
:101490000190F081E02DC6016C9109950F5F1F4FFF
:1014A0000C171D0778F3CE01DF91CF911F910F919B
:1014B000FF90EF90DF90CF9008950F931F938C01D2
:1014C000FC011482158281E086838783838561E035
:1014D0000E94CE0E80EA92E00E94B90BF80183854B
:1014E00061E00E940D0F61E070E080E090E00E94FA
:1014F000660EF801838560E00E940D0F6AE070E0DF
:1015000080E090E00E94660EF801838561E00E9411
:101510000D0FC8016EEA0E94A008C80165ED0E9487
:10152000A008C80160E80E94A008C80168EA0E94FB
:10153000A008C8016FE30E94A008C80163ED0E94E3
:10154000A008C80160E00E94A008C80160E40E94F1
:10155000A008C8016DE80E94A008C80164E10E94CB
:10156000A008C80160E20E94A008C80160E00E94D3
:10157000A008C80161EA0E94A008C80168EC0E94A6
:10158000A008C8016AED0E94A008C80162E10E949B
:10159000A008C80161E80E94A008C8016FEC0E9481
:1015A000A008C80169ED0E94A008C80161EF0E946F
:1015B000A008C8016BED0E94A008C80160E40E9469
:1015C000A008C80164EA0E94A008C80166EA0E9457
:1015D000A008C8016FEA0E94A0081F910F9108950A
:1015E00081E080939F0260937C0210929D02109292
:1015F0009E02089520917B0230E080917A02281BA0
:101600003109C901089540917A0280917B024817FF
:1016100018F02FEF3FEF0AC0E42FF0E0E65AFD4F3D
:101620008081282F30E04F5F40937A02C9010895EE
:10163000E0917A0280917B02E81718F0EFEFFFEF5C
:1016400006C0F0E0E65AFD4F8081E82FF0E0CF01C0
:10165000089508951092A3021092A20288EE93E0DA
:10166000A0E0B0E08093A4029093A502A093A6020C
:10167000B093A70289EA91E09093A1028093A0021F
:101680000895CF92DF92EF92FF920F931F93CF9323
:10169000DF937C016B018A0180919F028823A1F076
:1016A000C0E0D0E00DC0D701ED91FC91D601AC0FA8
:1016B000BD1F0190F081E02DC7016C910995219625
:1016C000C017D10780F304C0CB01642F0E94190C0E
:1016D000C801DF91CF911F910F91FF90EF90DF90A4
:1016E000CF900895DF93CF930F92CDB7DEB7FC0173
:1016F000698380919F028823C9F080919E02803285
:1017000038F081E090E09383828320E030E015C0E0
:1017100080919D02E82FF0E0E358FD4F998190837E
:101720008F5F80939D0280939E0205C0CE0101963B
:1017300061E00E94190C21E030E0C9010F90CF91C7
:10174000DF9108950F93062F80917C026DE772E080
:1017500040919E0221E00E94C40B10929D021092C3
:101760009E0210929F020F91089561E00E94A20BC9
:10177000089510927A0210927B0210929D021092AC
:101780009E020E94C50D08950F931F93582F122F8C
:10179000413210F081E04AC08091AC028823E1F729
:1017A00082E08093AC020093AE028FEF8093190326
:1017B0001092D4024093D502A4EBB2E0FB0102C028
:1017C00081918D938E2F861B8417D0F31092AD02DA
:1017D0008091AD02550F852B8093AD028091AF02B1
:1017E000813041F41092AF028091AD028093BB0032
:1017F00085EC01C085EE8093BC00112321F080911F
:10180000AC028230E1F3809119038F3F11F480E044
:101810000DC080911903803211F482E007C08091DD
:101820001903803311F084E001C083E01F910F9110
:101830000895482F613210F081E008958091AC0244
:10184000843011F082E008956093F702A6EDB2E0D3
:10185000842F9C01F90102C081918D938E2F841BEE
:101860008617D0F380E008951F920F920FB60F9263
:1018700011242F933F934F935F936F937F938F9395
:101880009F93AF93BF93EF93FF938091B90090E044
:10189000887F90708036910509F4F2C081369105F9
:1018A000CCF58832910509F47BC089329105B4F4F6
:1018B0008031910509F46FC0813191053CF40097A6
:1018C00009F447C1089709F04FC165C088319105F7
:1018D00009F466C0809709F047C182C08034910541
:1018E00009F4A4C08134910544F48033910509F4CE
:1018F00082C0C89709F038C189C08035910509F4C4
:1019000089C08835910509F496C08834910509F09D
:101910002BC1AEC08839910509F413C189399105ED
:10192000ECF48837910509F4ABC0893791054CF484
:101930008836910509F4A4C08037910509F014C1D7
:101940009FC08838910509F4FCC08039910509F4DD
:101950009DC08038910509F007C198C0803B910572
:1019600009F4C6C0813B91054CF4803A910509F415
:101970009FC0883A910509F0F7C0BAC0803C910534
:1019800009F4E3C0883C910509F4DFC0883B910568
:1019900009F0EAC0C2C08091AD028093BB00CFC005
:1019A0009091D4028091D502981768F49091D40256
:1019B000E92FF0E0EC54FD4F80818093BB009F5FE6
:1019C0009093D402BCC08091AE02882309F44BC02E
:1019D00085ED8093BC008091BC0084FDFCCFC2C02B
:1019E00080E28093190385ED8093BC008091BC0058
:1019F00084FDFCCFB7C080E38093190385ED80930D
:101A0000BC008091BC0084FDFCCFACC088E3809317
:101A100019039BC08091D4029091BB00E82FF0E0A5
:101A2000EC54FD4F90838F5F8093D4029091D40249
:101A30008091D50282C08091D4029091BB00E82FA2
:101A4000F0E0EC54FD4F90838F5F8093D40280913F
:101A5000AE02882341F085ED8093BC008091BC00EC
:101A600084FDFCCF7FC081E08093AF0284EA6EC02A
:101A700085ED8093BC008091BC0084FDFCCF72C0DA
:101A800083E08093AC021092180359C08091180330
:101A9000803208F056C0809118039091BB00E82F67
:101AA000F0E0E850FD4F90838F5F8093180347C0AC
:101AB00080911803803230F4E0911803F0E0E85090
:101AC000FD4F108285ED8093BC008091BC0084FDA9
:101AD000FCCF1092AC0260911803E091B202F09139
:101AE000B30288EF92E070E00995109218032DC0C0
:101AF00084E08093AC021092F6021092F702E0911B
:101B0000B002F091B10209958091F702882329F47F
:101B100081E08093F7021092D6029091F602E92FAD
:101B2000F0E0EA52FD4F80818093BB009F5F90936D
:101B3000F6029091F6028091F702981710F485EC66
:101B400001C085E88093BC000FC085EC8093BC0089
:101B500009C01092190385ED8093BC008091BC00F0
:101B600084FDFCCF1092AC02FF91EF91BF91AF9139
:101B70009F918F917F916F915F914F913F912F91A5
:101B80000F900FBE0F901F9018951092AC0281E03D
:101B90008093AE021092AF0282E161E00E940D0FCD
:101BA00083E161E00E940D0FE9EBF0E080818E7F20
:101BB000808380818D7F808388E48093B80085E472
:101BC0008093BC0008951F920F920FB60F921124BC
:101BD0002F933F938F939F93AF93BF9380911E0357
:101BE00090911F03A0912003B09121033091220313
:101BF0000196A11DB11D232F2D5F2D3720F02D57EC
:101C00000196A11DB11D2093220380931E03909382
:101C10001F03A0932003B093210380911A03909196
:101C20001B03A0911C03B0911D030196A11DB11DC2
:101C300080931A0390931B03A0931C03B0931D037E
:101C4000BF91AF919F918F913F912F910F900FBEB8
:101C50000F901F901895789484B5826084BD84B5E8
:101C6000816084BD85B5826085BD85B5816085BD97
:101C7000EEE6F0E0808181608083E1E8F0E01082B0
:101C8000808182608083808181608083E0E8F0E0F1
:101C9000808181608083E1EBF0E0808184608083DB
:101CA000E0EBF0E0808181608083EAE7F0E0808112
:101CB0008460808380818260808380818160808372
:101CC0008081806880831092C1000895EF92FF9216
:101CD0000F931F93CF93DF937B018C013FB7F89451
:101CE00080911A0390911B03A0911C03B0911D03D6
:101CF00026B5A89B05C02F3F19F00196A11DB11D67
:101D00003FBFBA2FA92F982F8827820F911DA11DA1
:101D1000B11D52E0880F991FAA1FBB1F5A95D1F71A
:101D2000EC0130C00E9415123FB7F89480911A035D
:101D300090911B03A0911C03B0911D0326B5A89B95
:101D400005C02F3F19F00196A11DB11D3FBFBA2F4D
:101D5000A92F982F8827820F911DA11DB11D32E058
:101D6000880F991FAA1FBB1F3A95D1F78C1B9D0B9B
:101D7000885E9340B8F20894E108F108010911095E
:101D8000C851DC4FE114F1040105110559F6DF914A
:101D9000CF911F910F91FF90EF900895CF93DF9314
:101DA000482F50E0CA018A5E9C4FFC0134914E5F7F
:101DB0005C4FFA018491882369F190E0880F991FA4
:101DC000FC01EC51FD4FA591B491FC01E251FD4F96
:101DD000C591D491662351F42FB7F8948C91932F29
:101DE000909589238C93888189230BC0623061F49C
:101DF0002FB7F8948C91932F909589238C93888199
:101E0000832B88832FBF06C09FB7F8948C91832BB8
:101E10008C939FBFDF91CF910895482F50E0CA0166
:101E2000865D9C4FFC012491CA018A5E9C4FFC0197
:101E300094914E5F5C4FFA013491332309F440C012
:101E4000222351F1233071F0243028F42130A1F005
:101E5000223011F514C02630B1F02730C1F0243003
:101E6000D9F404C0809180008F7703C080918000F6
:101E70008F7D8093800010C084B58F7702C084B5B9
:101E80008F7D84BD09C08091B0008F7703C08091A1
:101E9000B0008F7D8093B000E32FF0E0EE0FFF1FC6
:101EA000E251FD4FA591B4912FB7F894662321F428
:101EB0008C919095892302C08C91892B8C932FBF94
:101EC000089508951F920F920FB60F9211242F9329
:101ED0003F934F938F939F93EF93FF938091C00015
:101EE00082FD19C04091C60080914103282F30E047
:101EF0002F5F3F4F2F7330708091420390E028177F
:101F0000390759F0E0914103F0E0ED5DFC4F42A349
:101F10002093410302C08091C600FF91EF919F91F1
:101F20008F914F913F912F910F900FBE0F901F9067
:101F30001895809141032091420390E0805C9F4F6F
:101F4000821B91098F739070892B11F00E94610F91
:101F500008951F920F920FB60F9211242F938F9313
:101F60009F93EF93FF9390914303809144039817BD
:101F700031F48091C1008F7D8093C10010C0E09149
:101F80004403F0E0EB57FC4F20818091440390E044
:101F900001968F739070809344032093C600FF9145
:101FA000EF919F918F912F910F900FBE0F901F90E7
:101FB0001895AF92BF92DF92EF92FF920F931F930B
:101FC000CF93DF93EC017A018B01DD24403081EE69
:101FD000580780E0680780E0780711F0DD24D3948B
:101FE00091E0A92EB12CE889F989DD2069F0C501BD
:101FF0000C8C02C0880F991F0A94E2F7808360E07E
:1020000079E08DE390E005C0108260E874E88EE12D
:1020100090E0A80197010E945C122150304040409E
:102020005040569547953795279580E120303807E1
:1020300020F0DD2011F0DD24D6CFEC85FD85308346
:10204000EE85FF8520831D8EEA89FB89408121E092
:1020500030E0C901088C02C0880F991F0A94E2F78A
:10206000482B4083EA89FB894081C901098C02C061
:10207000880F991F0A94E2F7482B4083EA89FB896D
:102080004081C9010A8C02C0880F991F0A94E2F7A7
:10209000482B4083EA89FB8980810B8C02C0220F88
:1020A000331F0A94E2F7209528232083DF91CF91F4
:1020B0001F910F91FF90EF90DF90BF90AF90089528
:1020C000FC01268D878D30E0205C3F4F281B3109B5
:1020D0002F733070C9010895FC01968D878D981774
:1020E00019F42FEF3FEF06C0878DE80FF11D82A195
:1020F000282F30E0C9010895DC015E969C915E971F
:102100005F968C915F97981719F42FEF3FEF10C0EF
:102110005F968C915F97FD01E80FF11D92A15F968C
:102120008C915F978F5F8F735F968C93292F30E030
:10213000C9010895DC015D968C915D97882339F083
:102140005096ED91FC915197808186FFF9CF5D9675
:102150001C920895DC0190968C919097282F30E086
:102160002F5F3F4F2F73307091968C91919790E035
:1021700028173907C9F390968C919097FD01E80FC5
:10218000F11DEE59FF4F608390962C9390975296D5
:10219000ED91FC915397208181E090E05B960C904B
:1021A0005B9702C0880F991F0A94E2F7282B2083BF
:1021B00081E05D968C935D975096ED91FC915197DF
:1021C00080818064808381E090E0089510922603EE
:1021D0001092250388EE93E0A0E0B0E080932703FF
:1021E00090932803A0932903B0932A0389EB91E0ED
:1021F000909324038093230310924403809144031B
:1022000080934303109242038091420380934103E1
:1022100085EC90E09093300380932F0384EC90E062
:10222000909332038093310380EC90E090933403D9
:102230008093330381EC90E09093360380933503D1
:1022400082EC90E0909338038093370386EC90E023
:1022500090933A038093390384E080933B0383E0B7
:1022600080933C0387E080933D0385E080933E03A9
:1022700081E080933F030895CF93DF930E942B0E5C
:102280000E942103C9E9DFE00E9400022097E1F3E8
:102290000E94990FF9CFCF92DF92EF92FF920F93A6
:1022A0001F93CF93DF937C016B018A01C0E0D0E0E4
:1022B0000FC0D6016D916D01D701ED91FC91019098
:1022C000F081E02DC7010995C80FD91F01501040BA
:1022D0000115110571F7CE01DF91CF911F910F917B
:1022E000FF90EF90DF90CF900895CF93DF93EC01B4
:1022F0006115710519F420E030E00FC0DB010D908D
:102300000020E9F71197A61BB70BE881F98102803D
:10231000F381E02DAD0109959C01C901DF91CF91B9
:1023200008954F925F927F928F929F92AF92BF9249
:10233000CF92DF92EF92FF920F931F93DF93CF9391
:10234000CDB7DEB7A1970FB6F894DEBF0FBECDBFF5
:102350002C01742ECB01223008F42AE019A231E2BC
:10236000C32ED12CCC0EDD1E822E9924AA24BB2490
:10237000672D752FA50194010E945C1279018A01D5
:10238000C801B701A50194010E941612472D461BF2
:102390000894C108D1084A3014F4405D01C0495C7A
:1023A000F6014083E114F1040105110521F07E2CB2
:1023B0005F2DC801DDCFC201B6010E947511A19643
:1023C0000FB6F894DEBF0FBECDBFCF91DF911F9146
:1023D0000F91FF90EF90DF90CF90BF90AF909F90C4
:1023E0008F907F905F904F900895DC01211531050B
:1023F00041F4ED91FC910190F081E02D642F09955D
:1024000008950E9491110895EF92FF920F931F93E8
:102410009A017B0100E010E0B801A7010E94F511CC
:102420001F910F91FF90EF9008950895629FD00142
:10243000739FF001829FE00DF11D649FE00DF11D7F
:10244000929FF00D839FF00D749FF00D659FF00D2E
:102450009927729FB00DE11DF91F639FB00DE11D1B
:10246000F91FBD01CF0111240895AA1BBB1B51E127
:1024700007C0AA1FBB1FA617B70710F0A61BB70BF4
:10248000881F991F5A95A9F780959095BC01CD0199
:10249000089597FB092E07260AD077FD04D0E5DFC3
:1024A00006D000201AF4709561957F4F0895F6F7D5
:1024B000909581959F4F0895A1E21A2EAA1BBB1BF0
:1024C000FD010DC0AA1FBB1FEE1FFF1FA217B30700
:1024D000E407F50720F0A21BB30BE40BF50B661F16
:1024E000771F881F991F1A9469F7609570958095DA
:1024F00090959B01AC01BD01CF010895EE0FFF1F28
:102500000590F491E02D099413E0C4E4D3E004C0F5
:10251000FE010E9480122296C634D107C9F7F894B2
:02252000FFCFEB
:1025220050504D3A00202020202020202020202022
:102532002020202020006572726F720057534E2DAA
:10254200434F322056322E30002D2D2D2D2D2D2D84
:102552002D2D2D2D2D2D2D2D2D2D2D2D2D2D2D2DA9
:102562002D2D005A69676265652050616E69643A73
:10257200005A6967626565204368616E6E656C3AF0
:102582000057534E20446576204164643A0020008F
:10259200330D0700AAAA5555A5A5C3B50000FFFF34
:1025A200FFFFFF5BFF0186000000000079000000D2
:1025B2000023074B110907E806E607D507000000CC
:1025C20000DE084B1100000000720B410BFA0A03F7
:1025D2000B180B290B00000000AA104B1160107C95
:0625E200106C109A1000BD
:107800000C94343C0C94513C0C94513C0C94513CE1
:107810000C94513C0C94513C0C94513C0C94513CB4
:107820000C94513C0C94513C0C94513C0C94513CA4
:107830000C94513C0C94513C0C94513C0C94513C94
:107840000C94513C0C94513C0C94513C0C94513C84
:107850000C94513C0C94513C0C94513C0C94513C74
:107860000C94513C0C94513C11241FBECFEFD8E036
:10787000DEBFCDBF11E0A0E0B1E0ECE9FFE702C060
:1078800005900D92A230B107D9F712E0A2E0B1E065
:1078900001C01D92AD30B107E1F70E942D3D0C945F
:1078A000CC3F0C94003C982F959595959595959582
:1078B000905D8F708A307CF0282F295A8091C0000B
:1078C00085FFFCCF9093C6008091C00085FFFCCF60
:1078D0002093C6000895282F205DF0CF982F809127
:1078E000C00085FFFCCF9093C6000895EF92FF92F1
:1078F0000F931F93EE24FF2487018091C00087FD22
:1079000017C00894E11CF11C011D111D81E4E8164B
:1079100082E4F8068FE0080780E0180770F3E09132
:107920000401F091050109958091C00087FFE9CF1E
:107930008091C6001F910F91FF90EF9008950E94D3
:10794000763C982F8091C00085FFFCCF9093C600B5
:1079500091362CF490330CF09053892F089597555D
:10796000892F08951F930E949F3C182F0E949F3CCF
:107970001295107F810F1F9108951F93182F882350
:1079800021F00E94763C1150E1F71F9108951F935A
:10799000182F0E94763C803249F0809103018F5F5E
:1079A000809303018530C1F01F9108958091C0003C
:1079B00085FFFCCF84E18093C6008091C00085FFE5
:1079C000FCCF1093C6008091C00085FFFCCF80E102
:1079D0008093C6001F910895E0910401F091050184
:1079E00009951F9108950E94763C803241F0809164
:1079F00003018F5F80930301853081F008958091AA
:107A0000C00085FFFCCF84E18093C6008091C00058
:107A100085FFFCCF80E18093C6000895E0910401CA
:107A2000F09105010995089540E951E08823A1F0FE
:107A30002D9A28EE33E0FA013197F1F721503040CA
:107A4000D1F72D9828EE33E0FA013197F1F7215064
:107A50003040D1F7815061F708953F924F925F9285
:107A60006F927F928F929F92AF92BF92CF92DF924E
:107A7000EF92FF920F931F93CF93DF93000080E16B
:107A80008093C4001092C50088E18093C10086E015
:107A90008093C2005098589A259A81E00E94143D24
:107AA00024E1F22E9EE1E92E85E9D82E0FE0C02ECA
:107AB00010E1B12EAA24A394B1E49B2EA6E58A2E50
:107AC000F2E57F2EE0E26E2E79E4572E63E5462E36
:107AD00050E5352E0E94763C8033B1F18133B9F107
:107AE000803409F46FC0813409F476C0823409F41B
:107AF00085C0853409F488C0803531F1823521F1A3
:107B0000813511F1853509F485C0863509F48DC0BC
:107B1000843609F496C0843709F403C1853709F423
:107B200072C1863709F466C0809103018F5F80932C
:107B30000301853079F6E0910401F0910501099582
:107B40000E94763C803351F60E94F33CC3CF0E94E2
:107B5000763C803249F78091C00085FFFCCFF092DF
:107B6000C6008091C00085FFFCCF9092C600809136
:107B7000C00085FFFCCF8092C6008091C00085FFC9
:107B8000FCCF7092C6008091C00085FFFCCF609250
:107B9000C6008091C00085FFFCCF5092C600809146
:107BA000C00085FFFCCF4092C6008091C00085FFD9
:107BB000FCCF3092C6008091C00085FFFCCFB09210
:107BC000C60088CF0E94763C863808F4BDCF0E945C
:107BD000763C0E94F33C7ECF0E94763C803809F4CC
:107BE0009CC0813809F40BC1823809F43CC1883942
:107BF00009F48FC080E00E94C73C6CCF84E10E94F2
:107C0000BD3C0E94F33C66CF85E00E94BD3C0E94D3
:107C1000F33C60CF0E94763C809306010E94763C44
:107C2000809307010E94F33C55CF0E94763C80333D
:107C300009F41DC183E00E94BD3C80E00E94C73C66
:107C400049CF0E94763C809309020E94763C809343
:107C5000080280910C028E7F80930C020E94763C79
:107C6000853409F415C18091080290910902892B8D
:107C700089F000E010E00E94763CF801E85FFE4FDA
:107C800080830F5F1F4F80910802909109020817AF
:107C9000190788F30E94763C803209F045CF809125
:107CA0000C0280FF01C16091060170910701660F0F
:107CB000771F7093070160930601A0910802B091AD
:107CC00009021097C9F0E8E0F1E09B01AD014E0F09
:107CD0005F1FF999FECF32BD21BD819180BDFA9A17
:107CE000F99A2F5F3F4FE417F50799F76A0F7B1F4B
:107CF00070930701609306018091C00085FFFCCF5F
:107D0000F092C6008091C00085FFFCCFB092C60003
:107D1000E1CE83E00E94C73CDDCE82E00E94C73CFA
:107D2000D9CE0E94763C809309020E94763C8093D3
:107D300008028091060190910701880F991F909386
:107D40000701809306010E94763C853409F4A6C0A1
:107D500080910C028E7F80930C020E94763C8032D0
:107D600009F0B8CE8091C00085FFFCCFF092C6002C
:107D7000609108027091090261157105B9F140E046
:107D800050E080910C02A82FA170B82FB27011C0E2
:107D9000BB2309F45CC0E0910601F0910701319624
:107DA000F0930701E09306014F5F5F4F46175707B7
:107DB000E8F4AA2369F3F999FECF209106013091E6
:107DC000070132BD21BDF89A90B58091C00085FFB2
:107DD000FCCF9093C6002F5F3F4F30930701209355
:107DE00006014F5F5F4F4617570718F38091C00099
:107DF00085FDE5CE8091C00085FFF8CFE0CE81E023
:107E00000E94C73C67CE0E94763C803209F08CCE3F
:107E10008091C00085FFFCCFF092C6008091C00029
:107E200085FFFCCFE092C6008091C00085FFFCCFAB
:107E3000D092C6008091C00085FFFCCFC092C600E2
:107E40008091C00085FFFCCFB092C60043CEE09188
:107E50000601F091070194918091C00085FFFCCF4D
:107E60009093C6009CCF80E10E94C73C33CE0E9415
:107E7000763C0E94763C182F0E94763C112309F430
:107E800083C0113009F484C08FE00E94C73C22CE29
:107E900080910C02816080930C02E5CE80910C02EF
:107EA000816080930C0259CF809107018823880F4D
:107EB000880B8A2180930B02809106019091070123
:107EC000880F991F90930701809306018091080203
:107ED00080FF09C080910802909109020196909359
:107EE000090280930802F894F999FECF1127E091D6
:107EF0000601F0910701C8E0D1E08091080290915D
:107F00000902103091F40091570001700130D9F34B
:107F100003E000935700E89500915700017001308D
:107F2000D9F301E100935700E89509901990009169
:107F3000570001700130D9F301E000935700E89534
:107F40001395103498F011270091570001700130FB
:107F5000D9F305E000935700E895009157000170B0
:107F60000130D9F301E100935700E895329602976A
:107F700009F0C7CF103011F00296E5CF112480919F
:107F8000C00085FFB9CEBCCE8EE10E94C73CA2CD19
:0C7F900085E90E94C73C9ECDF894FFCF0D
:027F9C00800063
:040000030000780081
:00000001FF