:100000000C9454010C947C010C947C010C947C01A4
:100010000C947C010C947C010C947C010C947C016C
:100020000C947C010C947C010C947C010C947C015C
:100030000C947C010C947C010C947C010C947C014C
:100040000C94B20B0C947C010C94310D0C94780D33
:100050000C947C010C947C010C947C010C947C012C
:100060000C94030A0C947C01000000000000005F67
:1000700000000007000700147F147F14242A7F2A41
:100080001223130864623649562050000807030003
:10009000001C2241000041221C002A1C7F1C2A084F
:1000A000083E0808008070300008080808080000B2
:1000B00060600020100804023E5149453E00427F26
:1000C000400072494949462141494D331814127F75
:1000D0001027454545393C4A494931412111090715
:1000E0003649494936464949291E00001400000096
:1000F0004034000000081422411414141414004168
:1001000022140802015909063E415D594E7C121124
:10011000127C7F494949363E414141227F4141415C
:100120003E7F494949417F090909013E41415173D7
:100130007F0808087F00417F41002040413F017F48
:10014000081422417F404040407F021C027F7F0410
:1001500008107F3E4141413E7F090909063E415159
:10016000215E7F09192946264949493203017F0149
:10017000033F4040403F1F2040201F3F4038403F4A
:10018000631408146303047804036159494D430060
:100190007F4141410204081020004141417F040297
:1001A000010204404040404000030708002054542E
:1001B00078407F284444383844444428384444280C
:1001C0007F385454541800087E090218A4A49C785F
:1001D0007F0804047800447D40002040403D007FBB
:1001E0001028440000417F40007C047804787C089B
:1001F0000404783844444438FC182424181824246F
:1002000018FC7C08040408485454542404043F4453
:10021000243C4040207C1C2040201C3C4030403C82
:1002200044281028444C9090907C4464544C4400E2
:100230000836410000007700000041360800020146
:100240000204023C2623263C000000002400270074
:100250002A0000000000250028002B0000000000FC
:1002600023002600290004040404040404040202F8
:100270000202020203030303030301020408102025
:100280004080010204081020010204081020000030
:100290000007000201000003040600000000000047
:1002A00000007E019F08B50E11241FBECFEFD8E0DD
:1002B000DEBFCDBF11E0A0E0B1E0EEEEF2E202C0A1
:1002C00005900D92A43EB107D9F713E0A4EEB1E07A
:1002D00001C01D92AF37B107E1F712E0C8EAD2E0E2
:1002E00004C02297FE010E947111C23AD107C9F7DA
:1002F0000E940B0F0C9475110C94000084EE91E099
:100300000E947D051092E8011092E7018FEB91E0C9
:100310009093E6018093E50184E08093F0010895D5
:100320001F93CF93DF938091FE0191E08927809303
:10033000FE01882321F48091A70160E003C0809131
:10034000A70161E00E94DC0C84EE91E00E94AC0504
:10035000EC018091FF01909100028C179D0720F421
:10036000D0930002C093FF0180910102909102029C
:10037000C817D90720F4D0930202C093010285EE7A
:1003800091E065E040E00E942F0611E01093EB0140
:100390001093EC0185EE91E060E071E00E94A3070C
:1003A0008091FF01909100028A30910578F485EEEA
:1003B00091E065E04FE10E942F061093EB0110934E
:1003C000EC0185EE91E065E071E036C08436910580
:1003D00078F485EE91E065E045E20E942F061093E7
:1003E000EB011093EC0185EE91E066E171E024C031
:1003F00023E0883E920778F485EE91E065E04BE2D9
:100400000E942F061093EB011093EC0185EE91E012
:1004100066E271E011C08051974280F485EE91E070
:1004200065E041E30E942F061093EB011093EC016D
:1004300085EE91E065E371E00E94A30785EE91E00F
:1004400065E049E10E942F0611E01093EB01109343
:10045000EC016091FF017091000285EE91E04AE0AD
:1004600050E00E94D30F85EE91E066E040E00E94EC
:100470002F061093EB011093EC0185EE91E063E4FD
:1004800071E00E94A30780910102909102028A30DC
:10049000910578F485EE91E066E04FE10E942F0629
:1004A0001093EB011093EC0185EE91E065E071E0B3
:1004B00036C08436910578F485EE91E066E045E239
:1004C0000E942F061093EB011093EC0185EE91E052
:1004D00066E171E024C023E0883E920778F485EE5F
:1004E00091E066E04BE20E942F061093EB0110931F
:1004F000EC0185EE91E066E271E011C08051974217
:1005000080F485EE91E066E041E30E942F061093AF
:10051000EB011093EC0185EE91E065E371E00E9440
:10052000A30785EE91E066E049E10E942F0611E005
:100530001093EB011093EC016091010270910202A3
:1005400085EE91E04AE050E00E94D30F85EE91E005
:1005500067E040E00E942F061093EB011093EC013E
:1005600085EE91E068E471E00E94A307CA30D105EE
:1005700078F485EE91E067E04FE10E942F0610933A
:10058000EB011093EC0185EE91E065E071E037C07E
:10059000C436D10578F485EE91E067E045E20E942B
:1005A0002F061093EB011093EC0185EE91E066E1CC
:1005B00071E025C083E0C83ED80778F485EE91E06D
:1005C00067E04BE20E942F061093EB011093EC01C1
:1005D00085EE91E066E271E012C027E2C031D207F9
:1005E00080F485EE91E067E041E30E942F061093CE
:1005F000EB011093EC0185EE91E065E371E00E9460
:10060000A30785EE91E067E049E10E942F0681E0B3
:100610008093EB018093EC0185EE91E0BE014AE00E
:1006200050E00E94D30F0FC08DED92E00E944B0E60
:10063000899382E0CF30D807B9F763E070E080E0BB
:1006400090E00E94350C8DED92E00E942F0E18165E
:1006500019061CF4C6E0D2E0E7CF68EE73E080E054
:1006600090E00E94350C84EE91E00E94AC05482F8A
:10067000392F909303028093040280910602853AF9
:10068000E1F580910E028A35C1F520910702809133
:10069000A901281731F4909108028091AA019817B6
:1006A00031F0222351F580910802882331F58091A1
:1006B00009028F3F11F580910A028F3FF1F480917A
:1006C0000B028F3FD1F480910C028F3FB1F48091E7
:1006D0000D028F3F91F43093B5014093B601C2EB08
:1006E000D1E08DED92E069910E94790E21E0CB3B43
:1006F000D207B9F78FEF80930602DF91CF911F9158
:1007000008950F931F93CF93DF9368EE73E080E01B
:1007100090E00E94350C8DED92E040E855E260E0FB
:1007200070E00E94A80D84EE91E060E10E94EA056D
:100730008091A70161E00E949D0C8091A9018093A6
:10074000B3018091AA018093B40185EE91E00E94EB
:10075000D20785EE91E00E945C0785EE91E060E0B3
:100760004BE10E942F0611E01093EB011093EC0176
:1007700085EE91E06DE471E00E94A30785EE91E0C3
:1007800061E041E00E942F061093EB011092EC0112
:1007900085EE91E06AE571E00E94A30785EE91E0A5
:1007A00062E040E00E942F061093EB011093EC01F1
:1007B00085EE91E064E771E00E94A30785EE91E089
:1007C00063E040E00E942F061093EB011093EC01D0
:1007D00085EE91E062E871E00E94A30785EE91E06A
:1007E00064E040E00E942F061093EB011093EC01AF
:1007F00085EE91E062E971E00E94A30785EE91E049
:1008000064E048E40E942F061093EB011093EC0182
:100810006091A90162956F706A3014F0695A01C045
:10082000605D85EE91E00E94530685EE91E064E004
:100830004EE40E942F0681E08093EB018093EC014F
:100840006091A9016F706A3014F0695A01C0605D4F
:1008500085EE91E00E94530685EE91E064E044E568
:100860000E942F0611E01093EB011093EC0185EE2E
:1008700091E06FE971E00E94A30785EE91E064E0EA
:100880004AE50E942F061093EB011093EC01609152
:10089000AA0162956F706A3014F0695A01C0605DF8
:1008A00085EE91E00E94530685EE91E064E040E61B
:1008B0000E942F0681E08093EB018093EC01609110
:1008C000AA016F706A3014F0695A01C0605D85EE4C
:1008D00091E00E945306CFC0FE01E555FE4F8DED1D
:1008E00092E060810E94790E2196C730D105A4F371
:1008F00068EE73E080E090E00DC08DED92E00E9424
:100900004B0E899382E0C431D807B9F763E070E0F9
:1009100080E090E00E94350C8DED92E00E942F0E59
:10092000181619061CF4CFE0D2E0E7CF68EE73E0AA
:1009300080E090E00E94350C80910F028A3A09F025
:1009400093C080911002833C09F08EC085EE91E047
:1009500062E04EE40E942F0681E08093EB018093D9
:10096000EC016091120262956F706A3014F0695A5E
:1009700001C0605D85EE91E00E94530685EE91E036
:1009800062E044E50E942F0681E08093EB018093B2
:10099000EC01609112026F706A3014F0695A01C064
:1009A000605D85EE91E00E94530685EE91E062E085
:1009B0004AE50E942F0681E08093EB018093EC01D1
:1009C0006091110262956F706A3014F0695A01C02B
:1009D000605D85EE91E00E94530685EE91E062E055
:1009E00040E60E942F0681E08093EB018093EC01AA
:1009F000609111026F706A3014F0695A01C0605D35
:100A000085EE91E00E94530685EE91E063E04AE5B1
:100A10000E942F0681E08093EB018093EC016091AE
:100A2000130262956F706A3014F0695A01C0605DFC
:100A300085EE91E00E94530685EE91E063E040E68A
:100A40000E942F0681E08093EB018093EC0160917E
:100A500013026F706A3014F0695A01C0605D85EE50
:100A600091E00E9453062BC0809105028F5F809316
:100A70000502833018F4C0E0D0E037CF85EE91E076
:100A800062E04EE40E942F0611E01093EB011093F8
:100A9000EC0185EE91E061EA71E00E94A30785EE2A
:100AA00091E063E04AE50E942F061093EB0110935A
:100AB000EC0185EE91E061EA71E00E94A30784EE0B
:100AC00091E00E94AC058C0162E370E080E090E070
:100AD0000E94350C10930202009301021093000251
:100AE0000093FF0162E370E080E090E00E94350C2B
:100AF000DF91CF911F910F9108950895FF920F9369
:100B00001F93F62E0AE512E0C80163E270E00E942E
:100B10006508C8016F2D0E94E708C8010E942A09D4
:100B20001F910F91FF9008959C01633169F064312A
:100B300028F4862F8051823070F406C0603258F05D
:100B4000623210F0633239F4C9010E947E0580E4FC
:100B50009CE90197F1F70895AF92BF92CF92DF928F
:100B6000EF92FF920F931F938AE5C82E82E0D82E52
:100B7000C60163E270E00E946508C60163E270E0AE
:100B800042E050E00E943B09C6010E947808F82E1E
:100B9000EE24C6010E9478085C01C6010E942A0961
:100BA000EA28FB2800E010E0C801B7010E94791094
:100BB0002AE939E949E95FE30E94E50F0E944D10F7
:100BC000CB011F910F91FF90EF90DF90CF90BF90DE
:100BD000AF900895FF920F931F938C01F62E8AE534
:100BE00092E00E943F09C8016F2D0E9494051F9159
:100BF0000F91FF900895FF920F931F93F62E0AE531
:100C000012E0C8016CE370E00E946508C80160E46E
:100C10000E94E708C8016F2D0E94E708C8010E94E2
:100C20002A091F910F91FF900895FF920F931F9330
:100C3000F62E0AE512E0C8016CE370E00E94650838
:100C4000C80160E00E94E708C8016F2D0E94E70814
:100C5000C8010E942A091F910F91FF9008950F93D8
:100C60001F93CF93DF93EC01142F062F683008F009
:100C700007E017FD1FE70D831C83612F6F70CE0106
:100C80000E94150612951F701061CE01612F0E94FF
:100C90001506006BCE01602F0E941506DF91CF91E3
:100CA0001F910F9108952F923F924F925F926F92F2
:100CB0007F928F929F92AF92BF92CF92DF92EF92EC
:100CC000FF920F931F93CF93DF937C01DC01169665
:100CD0008C91169714960C911497813071F5095FD9
:100CE00014960C93862F8052803608F06FE760527E
:100CF00085E0689F8001112408591F4FC0E0D0E0B3
:100D0000F801EC0FFD1FE491C7016E2F0E94FB0557
:100D10002196C530D105A1F710E009C0F701848103
:100D20008F5F8483C70160E00E94FB051F5FD701CE
:100D300017968C91181790F3AAC0F701358085E0BB
:100D4000689FC0011124E0E64E2EEFEF5E2E480EA4
:100D5000591ECC247CE0272E65E6662E6FEF762E9A
:100D6000680E791E81C0CC2DD0E0D70115968C91EC
:100D7000992787FD90958C0F9D1F803891050CF069
:100D800078C0CC2031F06C2D630DC701402F0E943C
:100D90002F064E0153E0880C991C5A95E1F7A82CB8
:100DA000A194E201FE01E859FF4FB490D7011696D5
:100DB000FC912F2F30E0C401B9010E943A1181E06B
:100DC00090E002C0880F991F6A95E2F7E82FC901E9
:100DD00043E0880F991F4A95E1F7821B930B4A2D38
:100DE000480FDD2421E01E2F1B2130E011C011111E
:100DF000D22A220F4150842F90E06F2F70E00E9482
:100E00002611892B11F4EE0F05C0222329F03F5F34
:100E10003F1768F3222339F7B090B8002092B8004A
:100E20008AE592E06CE370E00E9465088AE592E052
:100E300060E40E94E70810E006C08AE592E06D2DAC
:100E40000E94E7081F5FD70116968C911817A8F328
:100E50008AE592E00E942A09B092B8002196C61550
:100E6000D70509F09FCFC394F7012681C21608F475
:100E70007ACFD70117968C91080F85E0289FC00183
:100E80001124080FC701632D402F0E942F0681E017
:100E900090E0DF91CF911F910F91FF90EF90DF9045
:100EA000CF90BF90AF909F908F907F906F905F900A
:100EB0004F903F902F9008950F931F93CF93DF9300
:100EC0008C0161E20E941506C80160E00E941506CF
:100ED000C8016FE70E941506C80162E20E9415066C
:100EE000C80160E00E941506C80167E00E9415066F
:100EF0001091B8008CE08093B800C0E0D0E08AE5A3
:100F000092E06CE370E00E9465088AE592E060E49C
:100F10000E94E70800E08AE592E060E00E94E708AE
:100F20000F5F0031C1F760968AE592E00E942A09BE
:100F300084E0C030D80719F71093B800DF91CF9143
:100F40001F910F910895CF92DF92EF92FF920F932E
:100F50001F93CF93DF936C017B01EB01099000207D
:100F6000E9F72197C61BD70B00E010E00EC0D601B1
:100F7000ED91FC91D701A00FB11F0190F081E02D00
:100F8000C6016C9109950F5F1F4F0C171D0778F371
:100F9000CE01DF91CF911F910F91FF90EF90DF90E5
:100FA000CF9008950F931F938C01FC01148215823A
:100FB00081E086838783838561E00E949D0C8AE5BA
:100FC00092E00E943F09F801838561E00E94DC0CF9
:100FD00061E070E080E090E00E94350CF8018385CC
:100FE00060E00E94DC0C6AE070E080E090E00E942B
:100FF000350CF801838561E00E94DC0CC8016EEAC3
:101000000E941506C80165ED0E941506C80160E83A
:101010000E941506C80168EA0E941506C8016FE320
:101020000E941506C80163ED0E941506C80160E024
:101030000E941506C80160E40E941506C8016DE80B
:101040000E941506C80164E10E941506C80160E20D
:101050000E941506C80160E00E941506C80161EAF9
:101060000E941506C80168EC0E941506C8016AEDC9
:101070000E941506C80162E10E941506C80161E8D8
:101080000E941506C8016FEC0E941506C80169EDA3
:101090000E941506C80161EF0E941506C8016BED9C
:1010A0000E941506C80160E40E941506C80164EAA2
:1010B0000E941506C80166EA0E941506C8016FEA7B
:1010C0000E9415061F910F91089581E080935902A7
:1010D00060933602109257021092580208952091A0
:1010E000350230E080913402281B3109C90108958E
:1010F0004091340280913502481718F02FEF3FEFEE
:101100000AC0E42FF0E0EC5EFD4F8081282F30E034
:101110004F5F40933402C9010895E09134028091F9
:101120003502E81718F0EFEFFFEF06C0F0E0EC5ED5
:10113000FD4F8081E82FF0E0CF01089508951092CF
:101140005D0210925C0288EE93E0A0E0B0E0809334
:101150005E0290935F02A0936002B093610287ECFD
:1011600091E090935B0280935A020895CF92DF92B0
:10117000EF92FF920F931F93CF93DF937C016B014C
:101180008A01809159028823A1F0C0E0D0E00DC00F
:10119000D701ED91FC91D601AC0FBD1F0190F081FC
:1011A000E02DC7016C9109952196C017D10780F3F6
:1011B00004C0CB01642F0E94E809C801DF91CF91E0
:1011C0001F910F91FF90EF90DF90CF900895DF93E4
:1011D000CF930F92CDB7DEB7FC016983809159029E
:1011E0008823C9F080915802803238F081E090E085
:1011F0009383828320E030E015C080915702E82F6E
:10120000F0E0E95CFD4F998190838F5F80935702F6
:101210008093580205C0CE01019661E00E94E80962
:1012200021E030E0C9010F90CF91DF9108950F9335
:10123000062F8091360267E372E04091580221E068
:101240000E9493091092570210925802109259026C
:101250000F91089561E00E9417090895413208F046
:1012600040E2862F64E172E00E944A091092340243
:1012700080933502089521E00E942E09089510926E
:1012800034021092350210925702109258020E94B6
:10129000940B0895382F413210F040E042C0809105
:1012A00066028823E1F791E090936602209368023A
:1012B0008FEF8093D30210928E02415040938F02A1
:1012C0004F5F9093670280916702330F832B809367
:1012D000670280916902813041F410926902809125
:1012E00067028093BB0085EC01C085EE8093BC0053
:1012F000809166028130E1F380918E02841710F4B0
:1013000040918E0220E030E00AC0FB01E20FF31FA3
:10131000D901A259BD4F8C9180832F5F3F4F241775
:10132000A0F3842F08950F931F93582F122F41324B
:1013300010F081E04AC0809166028823E1F782E0E4
:1013400080936602009368028FEF8093D30210921D
:101350008E0240938F02AEE6B2E0FB0102C08191A3
:101360008D938E2F861B8417D0F310926702809185
:101370006702550F852B8093670280916902813047
:1013800041F410926902809167028093BB0085EC62
:1013900001C085EE8093BC00112321F0809166028C
:1013A0008230E1F38091D3028F3F11F480E00DC0D1
:1013B0008091D302803211F482E007C08091D30281
:1013C000803311F084E001C083E01F910F910895F4
:1013D000482F613210F081E00895809166028430D8
:1013E00011F082E008956093B102A0E9B2E0842F89
:1013F0009C01F90102C081918D938E2F841B861769
:10140000D0F380E008951F920F920FB60F9211242F
:101410002F933F934F935F936F937F938F939F93FC
:10142000AF93BF93EF93FF938091B90090E0887FD3
:1014300090708036910509F4F2C081369105CCF5A3
:101440008832910509F47BC089329105B4F480316A
:10145000910509F46FC0813191053CF4009709F4BE
:1014600047C1089709F04FC165C08831910509F45B
:1014700066C0809709F047C182C08034910509F4A5
:10148000A4C08134910544F48033910509F482C0ED
:10149000C89709F038C189C08035910509F489C021
:1014A0008835910509F496C08834910509F02BC15F
:1014B000AEC08839910509F413C189399105ECF45E
:1014C0008837910509F4ABC0893791054CF488360B
:1014D000910509F4A4C08037910509F014C19FC09B
:1014E0008838910509F4FCC08039910509F49DC044
:1014F0008038910509F007C198C0803B910509F437
:10150000C6C0813B91054CF4803A910509F49FC017
:10151000883A910509F0F7C0BAC0803C910509F4FA
:10152000E3C0883C910509F4DFC0883B910509F0D0
:10153000EAC0C2C0809167028093BB00CFC0909187
:101540008E0280918F02981768F490918E02E92F95
:10155000F0E0E259FD4F80818093BB009F5F909344
:101560008E02BCC080916802882309F44BC085EDCF
:101570008093BC008091BC0084FDFCCFC2C080E29F
:101580008093D30285ED8093BC008091BC0084FDE4
:10159000FCCFB7C080E38093D30285ED8093BC007D
:1015A0008091BC0084FDFCCFACC088E38093D30263
:1015B0009BC080918E029091BB00E82FF0E0E25931
:1015C000FD4F90838F5F80938E0290918E02809169
:1015D0008F0282C080918E029091BB00E82FF0E0D4
:1015E000E259FD4F90838F5F80938E028091680255
:1015F000882341F085ED8093BC008091BC0084FD80
:10160000FCCF7FC081E08093690284EA6EC085EDE3
:101610008093BC008091BC0084FDFCCF72C083E04D
:10162000809366021092D20259C08091D202803219
:1016300008F056C08091D2029091BB00E82FF0E0F4
:10164000EE54FD4F90838F5F8093D20247C080910C
:10165000D202803230F4E091D202F0E0EE54FD4F3D
:10166000108285ED8093BC008091BC0084FDFCCF8E
:10167000109266026091D202E0916C02F0916D02CC
:1016800082EB92E070E009951092D2022DC084E0C6
:10169000809366021092B0021092B102E0916A0249
:1016A000F0916B0209958091B102882329F481E0C1
:1016B0008093B102109290029091B002E92FF0E075
:1016C000E057FD4F80818093BB009F5F9093B002F5
:1016D0009091B0028091B102981710F485EC01C08E
:1016E00085E88093BC000FC085EC8093BC0009C0E6
:1016F0001092D30285ED8093BC008091BC0084FDE4
:10170000FCCF10926602FF91EF91BF91AF919F9134
:101710008F917F916F915F914F913F912F910F909A
:101720000FBE0F901F9018951092660281E0809373
:1017300068021092690282E161E00E94DC0C83E1A0
:1017400061E00E94DC0CE9EBF0E080818E7F808319
:1017500080818D7F808388E48093B80085E48093C6
:10176000BC0008951F920F920FB60F9211242F9371
:101770003F938F939F93AF93BF938091D8029091A3
:10178000D902A091DA02B091DB023091DC0201961D
:10179000A11DB11D232F2D5F2D3720F02D57019650
:1017A000A11DB11D2093DC028093D8029093D90231
:1017B000A093DA02B093DB028091D4029091D5021B
:1017C000A091D602B091D7020196A11DB11D8093C0
:1017D000D4029093D502A093D602B093D702BF91C2
:1017E000AF919F918F913F912F910F900FBE0F90CE
:1017F0001F901895789484B5826084BD84B581600B
:1018000084BD85B5826085BD85B5816085BDEEE608
:10181000F0E0808181608083E1E8F0E010828081E7
:1018200082608083808181608083E0E8F0E0808155
:1018300081608083E1EBF0E0808184608083E0EB75
:10184000F0E0808181608083EAE7F0E0808184605D
:1018500080838081826080838081816080838081B9
:10186000806880831092C1000895EF92FF920F93D9
:101870001F93CF93DF937B018C013FB7F894809146
:10188000D4029091D502A091D602B091D70226B58C
:10189000A89B05C02F3F19F00196A11DB11D3FBFA8
:1018A000BA2FA92F982F8827820F911DA11DB11D36
:1018B00052E0880F991FAA1FBB1F5A95D1F7EC0160
:1018C00030C00E94E40F3FB7F8948091D402909109
:1018D000D502A091D602B091D70226B5A89B05C02B
:1018E0002F3F19F00196A11DB11D3FBFBA2FA92F9F
:1018F000982F8827820F911DA11DB11D32E0880FFE
:10190000991FAA1FBB1F3A95D1F78C1B9D0B885EB0
:101910009340B8F20894E108F10801091109C8518F
:10192000DC4FE114F1040105110559F6DF91CF9167
:101930001F910F91FF90EF900895CF93DF93482F61
:1019400050E0CA0186589D4FFC0134914A595D4FC1
:10195000FA018491882369F190E0880F991FFC01B6
:10196000E85BFD4FA591B491FC01EE5AFD4FC59186
:10197000D491662351F42FB7F8948C91932F9095BE
:1019800089238C93888189230BC0623061F42FB73F
:10199000F8948C91932F909589238C938881832B35
:1019A00088832FBF06C09FB7F8948C91832B8C93AC
:1019B0009FBFDF91CF910895482F50E0CA01825711
:1019C0009D4FFC012491CA0186589D4FFC019491C2
:1019D0004A595D4FFA013491332309F440C0222360
:1019E00051F1233071F0243028F42130A1F022305D
:1019F00011F514C02630B1F02730C1F02430D9F4ED
:101A000004C0809180008F7703C0809180008F7D1B
:101A10008093800010C084B58F7702C084B58F7D1D
:101A200084BD09C08091B0008F7703C08091B00061
:101A30008F7D8093B000E32FF0E0EE0FFF1FEE5A92
:101A4000FD4FA591B4912FB7F894662321F48C91A2
:101A50009095892302C08C91892B8C932FBF089578
:101A600008951F920F920FB60F9211242F933F9358
:101A70004F938F939F93EF93FF938091C00082FDCC
:101A800019C04091C6008091FB02282F30E02F5FE3
:101A90003F4F2F7330708091FC0290E02817390778
:101AA00059F0E091FB02F0E0E352FD4F42A3209396
:101AB000FB0202C08091C600FF91EF919F918F9130
:101AC0004F913F912F910F900FBE0F901F9018953F
:101AD0008091FB022091FC0290E0805C9F4F821B72
:101AE00091098F739070892B11F00E94300D089529
:101AF0001F920F920FB60F9211242F938F939F93E3
:101B0000EF93FF939091FD028091FE02981731F4BC
:101B10008091C1008F7D8093C10010C0E091FE02D2
:101B2000F0E0E15CFC4F20818091FE0290E00196A4
:101B30008F7390708093FE022093C600FF91EF9107
:101B40009F918F912F910F900FBE0F901F9018951E
:101B5000AF92BF92DF92EF92FF920F931F93CF93BA
:101B6000DF93EC017A018B01DD24403081EE5807D0
:101B700080E0680780E0780711F0DD24D39491E0DD
:101B8000A92EB12CE889F989DD2069F0C5010C8CFA
:101B900002C0880F991F0A94E2F7808360E079E021
:101BA0008DE390E005C0108260E874E88EE190E07B
:101BB000A80197010E944D112150304040405040F3
:101BC000569547953795279580E12030380720F0C6
:101BD000DD2011F0DD24D6CFEC85FD853083EE8548
:101BE000FF8520831D8EEA89FB89408121E030E05A
:101BF000C901088C02C0880F991F0A94E2F7482B8C
:101C00004083EA89FB894081C901098C02C0880FA1
:101C1000991F0A94E2F7482B4083EA89FB894081A7
:101C2000C9010A8C02C0880F991F0A94E2F7482B59
:101C30004083EA89FB8980810B8C02C0220F331F0D
:101C40000A94E2F7209528232083DF91CF911F91FA
:101C50000F91FF90EF90DF90BF90AF900895FC013F
:101C6000268D878D30E0205C3F4F281B31092F7374
:101C70003070C9010895FC01968D878D981719F46D
:101C80002FEF3FEF06C0878DE80FF11D82A1282FAF
:101C900030E0C9010895DC015E969C915E975F96E5
:101CA0008C915F97981719F42FEF3FEF10C05F9654
:101CB0008C915F97FD01E80FF11D92A15F968C91C9
:101CC0005F978F5F8F735F968C93292F30E0C901E8
:101CD0000895DC015D968C915D97882339F05096CC
:101CE000ED91FC915197808186FFF9CF5D961C9212
:101CF0000895DC0190968C919097282F30E02F5F0B
:101D00003F4F2F73307091968C91919790E02817E8
:101D10003907C9F390968C919097FD01E80FF11D5A
:101D2000EE59FF4F608390962C9390975296ED91C9
:101D3000FC915397208181E090E05B960C905B973B
:101D400002C0880F991F0A94E2F7282B208381E0B4
:101D50005D968C935D975096ED91FC9151978081A3
:101D60008064808381E090E008951092E0021092F8
:101D7000DF0288EE93E0A0E0B0E08093E102909370
:101D8000E202A093E302B093E40287ED91E0909326
:101D9000DE028093DD021092FE028091FE028093AB
:101DA000FD021092FC028091FC028093FB0285EC04
:101DB00090E09093EA028093E90284EC90E09093A3
:101DC000EC028093EB0280EC90E09093EE02809323
:101DD000ED0281EC90E09093F0028093EF0282ECB0
:101DE00090E09093F2028093F10286EC90E0909361
:101DF000F4028093F30284E08093F50283E0809301
:101E0000F60287E08093F70285E08093F80281E094
:101E10008093F9020895CF93DF930E94FA0B0E94FA
:101E20008103C8E6DDE00E9490012097E1F30E9463
:101E3000680DF9CFCF92DF92EF92FF920F931F932D
:101E4000CF93DF937C016B018A01C0E0D0E00FC02B
:101E5000D6016D916D01D701ED91FC910190F0815A
:101E6000E02DC7010995C80FD91F01501040011579
:101E7000110571F7CE01DF91CF911F910F91FF9066
:101E8000EF90DF90CF900895CF93DF93EC01611531
:101E9000710519F420E030E00FC0DB010D90002047
:101EA000E9F71197A61BB70BE881F9810280F3814E
:101EB000E02DAD0109959C01C901DF91CF910895F5
:101EC0004F925F927F928F929F92AF92BF92CF92EA
:101ED000DF92EF92FF920F931F93DF93CF93CDB7D3
:101EE000DEB7A1970FB6F894DEBF0FBECDBF2C01B1
:101EF000742ECB01223008F42AE019A231E2C32E5D
:101F0000D12CCC0EDD1E822E9924AA24BB24672D51
:101F1000752FA50194010E944D1179018A01C80114
:101F2000B701A50194010E940711472D461B089493
:101F3000C108D1084A3014F4405D01C0495CF60183
:101F40004083E114F1040105110521F07E2C5F2D81
:101F5000C801DDCFC201B6010E94440FA1960FB6A1
:101F6000F894DEBF0FBECDBFCF91DF911F910F91CF
:101F7000FF90EF90DF90CF90BF90AF909F908F90A9
:101F80007F905F904F900895DC012115310541F459
:101F9000ED91FC910190F081E02D642F0995089559
:101FA0000E94600F0895EF92FF920F931F939A0182
:101FB0007B0100E010E0B801A7010E94C40F1F914F
:101FC0000F91FF90EF90089508950CD0E6C0DED0F9
:101FD00040F0D5D030F021F45F3F19F0C7C0511167
:101FE00010C1CAC0EBD098F39923C9F35523B1F3BC
:101FF000951B550BBB27AA2762177307840738F078
:102000009F5F5F4F220F331F441FAA1FA9F333D0D6
:102010000E2E3AF0E0E830D091505040E695001C8A
:10202000CAF729D0FE2F27D0660F771F881FBB1F46
:10203000261737074807AB07B0E809F0BB0B802D20
:10204000BF01FF2793585F4F2AF09E3F510568F06C
:102050008DC0D7C05F3FECF3983EDCF38695779553
:102060006795B795F7959F5FC9F7880F911D96956E
:10207000879597F90895E1E0660F771F881FBB1FCA
:10208000621773078407BA0720F0621B730B840B77
:10209000BA0BEE1F88F7E095089598D088F09F5707
:1020A00090F0B92F9927B751A0F0D1F0660F771FA4
:1020B000881F991F1AF0BA95C9F712C0B13081F084
:1020C0009FD0B1E008959CC0672F782F8827B85F14
:1020D00039F0B93FCCF3869577956795B395D9F7E5
:1020E0003EF490958095709561957F4F8F4F9F4FEF
:1020F0000895E89409C097FB3EF4909580957095FB
:1021000061957F4F8F4F9F4F9923A9F0F92F96E943
:10211000BB279395F695879577956795B795F111B8
:10212000F8CFFAF4BB0F11F460FF1BC06F5F7F4F55
:102130008F4F9F4F16C0882311F096E911C0772367
:1021400021F09EE8872F762F05C0662371F096E870
:10215000862F70E060E02AF09A95660F771F881F3F
:10216000DAF7880F9695879597F9089597F99F67FD
:1021700080E870E060E008959FEF80EC089500240F
:102180000A941616170618060906089500240A94DC
:1021900012161306140605060895092E0394000C62
:1021A00011F4882352F0BB0F40F4BF2B11F460FFF1
:1021B00004C06F5F7F4F8F4F9F4F089557FD90581A
:1021C000440F551F59F05F3F71F04795880F97FBFB
:1021D000991F61F09F3F79F08795089512161306B5
:1021E0001406551FF2CF4695F1DF08C016161706E4
:1021F0001806991FF1CF8695710561050894089519
:10220000E894BB2766277727CB0197F90895629F4B
:10221000D001739FF001829FE00DF11D649FE00DDE
:10222000F11D929FF00D839FF00D749FF00D659F3F
:10223000F00D9927729FB00DE11DF91F639FB00D3E
:10224000E11DF91FBD01CF0111240895AA1BBB1B7D
:1022500051E107C0AA1FBB1FA617B70710F0A61BA6
:10226000B70B881F991F5A95A9F780959095BC01C7
:10227000CD01089597FB092E07260AD077FD04D0DB
:10228000E5DF06D000201AF4709561957F4F089520
:10229000F6F7909581959F4F0895A1E21A2EAA1BFB
:1022A000BB1BFD010DC0AA1FBB1FEE1FFF1FA21706
:1022B000B307E407F50720F0A21BB30BE40BF50B03
:1022C000661F771F881F991F1A9469F7609570958C
:1022D000809590959B01AC01BD01CF010895EE0F53
:0E22E000FF1F0590F491E02D0994F894FFCFB4
:1022EE004D61783A00202020202020202020202020
:1022FE0020202020200020202020202020202020F0
:10230E0020202020200020202020202020202020DF
:10231E0020202020002020202020202020202020CF
:10232E002020004D696E3A004C75783A0057534E96
:10233E002D4C75782056322E30002D2D2D2D2D2D15
:10234E002D2D2D2D2D2D2D2D2D2D2D2D2D2D2D2DAF
:10235E002D2D2D005A69676265652050616E696486
:10236E003A005A6967626565204368616E6E656CF6
:10237E003A0057534E20446576204164643A00205B
:10238E00006572726F72000700C018AAAA5555A593
:10239E00A5C3B50000FFFFFFFFFF5B000000005369
:1023AE00061A0F00000000E708B6086F0878088DBF
:1023BE00089E0800000000790E1A0F2F0E4B0E3BE0
:0423CE000E690E0086
:00000001FF
