:100000000C9454010C947C010C947C010C947C01A4
:100010000C947C010C947C010C947C010C947C016C
:100020000C947C010C947C010C947C010C947C015C
:100030000C947C010C947C010C947C010C947C014C
:100040000C94460C0C947C010C94480E0C948F0E6E
:100050000C947C010C947C010C947C010C947C012C
:100060000C94970A0C947C01000000000000005FD3
:1000700000000007000700147F147F14242A7F2A41
:100080001223130864623649562050000807030003
:10009000001C2241000041221C002A1C7F1C2A084F
:1000A000083E0808008070300008080808080000B2
:1000B00060600020100804023E5149453E00427F26
:1000C000400072494949462141494D331814127F75
:1000D0001027454545393C4A494931412111090715
:1000E0003649494936464949291E00001400000096
:1000F0004034000000081422411414141414004168
:1001000022140802015909063E415D594E7C121124
:10011000127C7F494949363E414141227F4141415C
:100120003E7F494949417F090909013E41415173D7
:100130007F0808087F00417F41002040413F017F48
:10014000081422417F404040407F021C027F7F0410
:1001500008107F3E4141413E7F090909063E415159
:10016000215E7F09192946264949493203017F0149
:10017000033F4040403F1F2040201F3F4038403F4A
:10018000631408146303047804036159494D430060
:100190007F4141410204081020004141417F040297
:1001A000010204404040404000030708002054542E
:1001B00078407F284444383844444428384444280C
:1001C0007F385454541800087E090218A4A49C785F
:1001D0007F0804047800447D40002040403D007FBB
:1001E0001028440000417F40007C047804787C089B
:1001F0000404783844444438FC182424181824246F
:1002000018FC7C08040408485454542404043F4453
:10021000243C4040207C1C2040201C3C4030403C82
:1002200044281028444C9090907C4464544C4400E2
:100230000836410000007700000041360800020146
:100240000204023C2623263C000000002400270074
:100250002A0000000000250028002B0000000000FC
:1002600023002600290004040404040404040202F8
:100270000202020203030303030301020408102025
:100280004080010204081020010204081020000030
:100290000007000201000003040600000000000047
:1002A00000007E018D09CC0F11241FBECFEFD8E0D6
:1002B000DEBFCDBF12E0A0E0B1E0ECE6F4E202C0A8
:1002C00005900D92A633B107D9F713E0A6E3B2E08B
:1002D00001C01D92AB3DB107E1F712E0C8EAD2E0E0
:1002E00004C02297FE010E943012C23AD107C9F71A
:1002F0000E9422100C9434120C94000010924602BA
:100300001092450282E192E090934402809343026E
:1003100085E080934E020895EF92FF920F931F9312
:10032000CF93DF9380915C0291E0892780935C02F8
:10033000882321F48091FC0160E003C08091FC01DE
:1003400061E00E94A00D86E392E061E10E94B806A0
:100350002FEF8F3F920709F4EFC0009729F08E5FCF
:100360009F4F09F0B7C14FC160913A0270913B02B3
:1003700080913C0290913D020E942F117B018C01E3
:1003800060935D02F0925E026091360270913702D6
:1003900080913802909139020E942F1160935F0280
:1003A0007093600210920802E092090210920A0211
:1003B00060930B0283E492E065E040E00E941D0739
:1003C00011E01093490210934A0283E492E060E046
:1003D00071E00E94910880915D0290915E028A30E6
:1003E00091057CF483E492E065E048E10E941D07FA
:1003F0001093490210934A0283E492E064E071E0B2
:1004000023C0843691057CF483E492E065E04EE1FC
:100410000E941D071093490210934A0283E492E060
:1004200066E171E011C0885E934084F483E492E059
:1004300065E044E20E941D071093490210934A02AE
:1004400083E492E067E271E00E94910883E492E025
:1004500065E042E10E941D0711E0109349021093EC
:100460004A0260915D0270915E0283E492E04AE08C
:1004700050E00E941B1183E492E066E040E00E949D
:100480001D071093490210934A0283E492E067E348
:1004900071E00E94910880915F02909160028A3021
:1004A00091057CF483E492E066E048E10E941D0738
:1004B0001093490210934A0283E492E06BE371E0E7
:1004C00023C0843691057CF483E492E066E04EE13B
:1004D0000E941D071093490210934A0283E492E0A0
:1004E0006DE471E011C0885E934084F483E492E08F
:1004F00066E044E20E941D071093490210934A02ED
:1005000083E492E06EE571E00E94910883E492E05A
:1005100066E042E10E941D0781E0809349028093DA
:100520004A0260915F027091600283E492E04AE0C7
:1005300050E00E941B1146C160913A0270913B024B
:1005400080913C0290913D020E942F117B018C0111
:1005500060935D02F0925E02609136027091370204
:1005600080913802909139020E942F1160935F02AE
:10057000709360022DED20930802E092090220930F
:100580000A0260930B0283E492E065E040E00E947F
:100590001D0711E01093490210934A0283E492E090
:1005A00060E071E00E94910883E492E065E042E13E
:1005B0000E941D071093490210934A0283E492E0BF
:1005C0006EE671E00E94910883E492E066E040E00C
:1005D0000E941D071093490210934A0283E492E09F
:1005E00067E371E00E94910883E492E066E042E1F3
:1005F0000E941D071093490210934A0283E492E07F
:100600006EE671E0CDC060913A0270913B0280913C
:100610003C0290913D020E942F117B018C0160935E
:100620005D02F0925E026091360270913702809115
:100630003802909139020E942F1160935F027093EB
:1006400060022EEE20930802E092090220930A0233
:1006500060930B0283E492E065E040E00E941D0796
:1006600011E01093490210934A0283E492E060E0A3
:1006700071E00E94910883E492E065E042E10E940B
:100680001D071093490210934A0283E492E061E847
:1006900071E00E94910883E492E066E040E00E94ED
:1006A0001D071093490210934A0283E492E067E326
:1006B00071E00E94910883E492E066E042E10E94CA
:1006C0001D071093490210934A0283E492E061E807
:1006D00071E066C060913A0270913B0280913C02E9
:1006E00090913D020E942F117B018C0160935D026D
:1006F000F0925E026091360270913702809138026A
:10070000909139020E942F1160935F0270936002F2
:100710002FEF20930802E092090220930A026093CF
:100720000B0283E492E065E040E00E941D0711E0C7
:100730001093490210934A0283E492E060E071E072
:100740000E94910883E492E065E042E10E941D0767
:100750001093490210934A0283E492E064E971E045
:100760000E94910883E492E066E040E00E941D0749
:100770001093490210934A0283E492E067E371E028
:100780000E94910883E492E066E042E10E941D0726
:100790001093490210934A0283E492E064E971E005
:1007A0000E9491080FC089E393E00E94620F899331
:1007B00082E0CB36D807B9F763E070E080E090E0E4
:1007C0000E94F90C89E393E00E94460F181619065F
:1007D0001CF4C2E6D2E0E7CF68EE73E080E090E080
:1007E0000E94F90C80916202853AC1F580916A02FB
:1007F0008A35A1F5209163028091FA01281731F41E
:10080000909164028091FB01981731F0222331F519
:1008100080916402882311F5809165028F3FF1F485
:10082000809166028F3FD1F4809167028F3FB1F4CF
:10083000809168028F3F91F4809169028F3F71F43B
:10084000C5E0D2E089E393E069910E94900F22E035
:10085000CE30D207B9F78FEF80936202DF91CF914C
:100860001F910F91FF90EF9008951F93CF93DF9307
:1008700068EE73E080E090E00E94F90C89E393E079
:1008800040E855E260E070E00E94BF0E8091FC01FC
:1008900061E00E94610D8091FA01809306028091CF
:1008A000FB018093070283E492E00E94C00883E486
:1008B00092E00E944A0883E492E060E044E20E94F1
:1008C0001D0711E01093490210934A0283E492E05D
:1008D00062EA71E00E94910883E492E061E041E005
:1008E0000E941D071093490210924A0283E492E08D
:1008F0006DEA71E00E94910883E492E062E040E0DA
:100900000E941D071093490210934A0283E492E06B
:1009100067EC71E00E94910883E492E063E040E0BC
:100920000E941D071093490210934A0283E492E04B
:1009300065ED71E00E94910883E492E064E040E09C
:100940000E941D071093490210934A0283E492E02B
:1009500065EE71E00E94910883E492E064E048E46F
:100960000E941D071093490210934A026091FA01F8
:1009700062956F706A3014F0695A01C0605D83E45B
:1009800092E00E94410783E492E064E04EE40E941A
:100990001D0781E08093490280934A026091FA0129
:1009A0006F706A3014F0695A01C0605D83E492E0B0
:1009B0000E94410783E492E064E044E50E941D0741
:1009C00011E01093490210934A0283E492E062EF2F
:1009D00071E00E94910883E492E064E04AE50E949D
:1009E0001D071093490210934A026091FB01629522
:1009F0006F706A3014F0695A01C0605D83E492E060
:100A00000E94410783E492E064E040E60E941D07F3
:100A100081E08093490280934A026091FB016F70EC
:100A20006A3014F0695A01C0605D83E492E00E946C
:100A30004107CFC0FE01E250FE4F89E393E06081A1
:100A40000E94900F2196C730D105A4F368EE73E0A1
:100A500080E090E00DC089E393E00E94620F8993EB
:100A600082E0C037D807B9F763E070E080E090E03B
:100A70000E94F90C89E393E00E94460F18161906AC
:100A80001CF4CBE6D2E0E7CF68EE73E080E090E0C4
:100A90000E94F90C80916B028A3A09F093C0809110
:100AA0006C02833C09F08EC083E492E062E04EE485
:100AB0000E941D0781E08093490280934A02609161
:100AC0006E0262956F706A3014F0695A01C0605D01
:100AD00083E492E00E94410783E492E062E044E50F
:100AE0000E941D0781E08093490280934A02609131
:100AF0006E026F706A3014F0695A01C0605D83E461
:100B000092E00E94410783E492E062E04AE50E949D
:100B10001D0781E08093490280934A0260916D0233
:100B200062956F706A3014F0695A01C0605D83E4A9
:100B300092E00E94410783E492E062E040E60E9476
:100B40001D0781E08093490280934A0260916D0203
:100B50006F706A3014F0695A01C0605D83E492E0FE
:100B60000E94410783E492E063E04AE50E941D078A
:100B700081E08093490280934A0260916F026295FE
:100B80006F706A3014F0695A01C0605D83E492E0CE
:100B90000E94410783E492E063E040E60E941D0763
:100BA00081E08093490280934A0260916F026F70E6
:100BB0006A3014F0695A01C0605D83E492E00E94DB
:100BC00041072BC0809161028F5F80936102833067
:100BD00018F4C0E0D0E037CF83E492E062E04EE466
:100BE0000E941D0711E01093490210934A0283E40A
:100BF00092E064EF71E00E94910883E492E063E088
:100C00004AE50E941D071093490210934A0283E4AB
:100C100092E064EF71E00E949108DF91CF911F9103
:100C200008954F925F927F928F929F92AF92BF9260
:100C3000CF92DF92EF92FF920F931F93CF93DF93A8
:100C40005C01962EFC01108611861286138614868E
:100C5000862F61E00E94610D892D60E00E94A00D49
:100C600064E170E080E090E00E94F90C892D61E081
:100C70000E94A00D88E290E00E94B40C892D60E0F3
:100C80000E94610DC0E1D7E203C0209771F1219766
:100C9000892D0E94F40D892BC1F3C0E1D7E203C076
:100CA000209719F12197892D0E94F40D0197C1F326
:100CB00004C02097D1F021970AC027E0822E772424
:100CC000CC24DD2491E0492E512CC0E1D7E2892DBE
:100CD0000E94F40D892B69F30E948E0C7B018C011C
:100CE000C0E1D7E206C0209719F42EEF3FEF2FC0E6
:100CF0002197892D0E94F40D0197A9F30E948E0C73
:100D00006E197F09800B910B693271058105910580
:100D100068F0F501E70DF11D9201082C02C0220FC9
:100D2000331F0A94E2F78085822B8087882021F484
:100D3000739487E0882E01C08A940894C11CD11C4A
:100D4000F8E2CF16D10409F0C0CF20E030E0C901AD
:100D5000DF91CF911F910F91FF90EF90DF90CF9097
:100D6000BF90AF909F908F907F905F904F9008952D
:100D7000EF92FF920F931F93CF93DF93EC010E94AA
:100D800011067C010097E9F40885602F70E080E08F
:100D900090E00E946011688379838A839B831A851F
:100DA000612F70E080E090E00E9460116C837D8391
:100DB0008E839F83100F8C85811719F0EE24EA949F
:100DC000FE2CC701DF91CF911F910F91FF90EF9003
:100DD0000895FF920F931F93F62E06EB12E0C801C1
:100DE0006CE370E00E945309C80160E40E94D509D9
:100DF000C8016F2D0E94D509C8010E94180A1F91D1
:100E00000F91FF900895FF920F931F93F62E06EB1C
:100E100012E0C8016CE370E00E945309C80160E071
:100E20000E94D509C8016F2D0E94D509C8010E94F2
:100E3000180A1F910F91FF9008950F931F93CF935E
:100E4000DF93EC01142F062F683008F007E017FD40
:100E50001FE70D831C83612F6F70CE010E94030773
:100E600012951F701061CE01612F0E940307006B65
:100E7000CE01602F0E940307DF91CF911F910F9148
:100E800008952F923F924F925F926F927F928F922E
:100E90009F92AF92BF92CF92DF92EF92FF920F9309
:100EA0001F93CF93DF937C01DC0116968C911697EC
:100EB00014960C911497813071F5095F14960C9378
:100EC000862F8052803608F06FE7605285E0689F79
:100ED0008001112408591F4FC0E0D0E0F801EC0F49
:100EE000FD1FE491C7016E2F0E94E9062196C530CF
:100EF000D105A1F710E009C0F70184818F5F8483D9
:100F0000C70160E00E94E9061F5FD70117968C9128
:100F1000181790F3AAC0F701358085E0689FC001DB
:100F20001124E0E64E2EEFEF5E2E480E591ECC2423
:100F30007CE0272E65E6662E6FEF762E680E791E12
:100F400081C0CC2DD0E0D70115968C91992787FDD3
:100F500090958C0F9D1F803891050CF078C0CC20A7
:100F600031F06C2D630DC701402F0E941D074E010B
:100F700053E0880C991C5A95E1F7A82CA194E20142
:100F8000FE01E859FF4FB490D7011696FC912F2F20
:100F900030E0C401B9010E94F91181E090E002C083
:100FA000880F991F6A95E2F7E82FC90143E0880F7F
:100FB000991F4A95E1F7821B930B4A2D480FDD24B8
:100FC00021E01E2F1B2130E011C01111D22A220F67
:100FD0004150842F90E06F2F70E00E94E511892B23
:100FE00011F4EE0F05C0222329F03F5F3F1768F38D
:100FF000222339F7B090B8002092B80086EB92E037
:101000006CE370E00E94530986EB92E060E40E947A
:10101000D50910E006C086EB92E06D2D0E94D5093F
:101020001F5FD70116968C911817A8F386EB92E0F4
:101030000E94180AB092B8002196C615D70509F08B
:101040009FCFC394F7012681C21608F47ACFD70147
:1010500017968C91080F85E0289FC0011124080F76
:10106000C701632D402F0E941D0781E090E0DF91B2
:10107000CF911F910F91FF90EF90DF90CF90BF9095
:10108000AF909F908F907F906F905F904F903F9028
:101090002F9008950F931F93CF93DF938C0161E2FC
:1010A0000E940307C80160E00E940307C8016FE7C0
:1010B0000E940307C80162E20E940307C80160E0C2
:1010C0000E940307C80167E00E9403071091B8005F
:1010D0008CE08093B800C0E0D0E086EB92E06CE357
:1010E00070E00E94530986EB92E060E40E94D5090B
:1010F00000E086EB92E060E00E94D5090F5F0031CE
:10110000C1F7609686EB92E00E94180A84E0C03036
:10111000D80719F71093B800DF91CF911F910F9165
:101120000895CF92DF92EF92FF920F931F93CF9388
:10113000DF936C017B01EB0109900020E9F7219717
:10114000C61BD70B00E010E00EC0D601ED91FC915C
:10115000D701A00FB11F0190F081E02DC6016C9165
:1011600009950F5F1F4F0C171D0778F3CE01DF9114
:10117000CF911F910F91FF90EF90DF90CF90089546
:101180000F931F938C01FC011482158281E08683EA
:101190008783838561E00E94610D86EB92E00E9467
:1011A0001C0AF801838561E00E94A00D61E070E0F7
:1011B00080E090E00E94F90CF801838560E00E94D5
:1011C000A00D6AE070E080E090E00E94F90CF80168
:1011D000838561E00E94A00DC8016EEA0E940307AA
:1011E000C80165ED0E940307C80160E80E9403077B
:1011F000C80168EA0E940307C8016FE30E94030761
:10120000C80163ED0E940307C80160E00E94030764
:10121000C80160E40E940307C8016DE80E9403074B
:10122000C80164E10E940307C80160E20E9403074D
:10123000C80160E00E940307C80161EA0E94030739
:10124000C80168EC0E940307C8016AED0E94030709
:10125000C80162E10E940307C80161E80E94030718
:10126000C8016FEC0E940307C80169ED0E940307E3
:10127000C80161EF0E940307C8016BED0E940307DC
:10128000C80160E40E940307C80164EA0E940307E2
:10129000C80166EA0E940307C8016FEA0E940307BB
:1012A0001F910F91089581E08093B502609392029F
:1012B0001092B3021092B40208952091910230E08E
:1012C00080919002281B3109C90108954091900234
:1012D00080919102481718F02FEF3FEF0AC0E42FDA
:1012E000F0E0E059FD4F8081282F30E04F5F4093C0
:1012F0009002C9010895E091900280919102E8174F
:1013000018F0EFEFFFEF06C0F0E0E059FD4F8081ED
:10131000E82FF0E0CF01089508951092B9021092DD
:10132000B80288EE93E0A0E0B0E08093BA02909318
:10133000BB02A093BC02B093BD028AE192E09093FD
:10134000B7028093B6020895CF92DF92EF92FF9298
:101350000F931F93CF93DF937C016B018A018091E0
:10136000B5028823A1F0C0E0D0E00DC0D701ED9117
:10137000FC91D601AC0FBD1F0190F081E02DC7019B
:101380006C9109952196C017D10780F304C0CB0159
:10139000642F0E947C0AC801DF91CF911F910F91A9
:1013A000FF90EF90DF90CF900895DF93CF930F924F
:1013B000CDB7DEB7FC0169838091B5028823C9F0FF
:1013C0008091B402803238F081E090E09383828390
:1013D00020E030E015C08091B302E82FF0E0ED5638
:1013E000FD4F998190838F5F8093B3028093B40205
:1013F00005C0CE01019661E00E947C0A21E030E048
:10140000C9010F90CF91DF9108950F93062F80911E
:10141000920263E972E04091B40221E00E94270A3F
:101420001092B3021092B4021092B5020F91089577
:1014300061E00E94050A08951092900210929102B4
:101440001092B3021092B4020E94280C08950F93D8
:101450001F93582F122F413210F081E04AC0809123
:10146000C2028823E1F782E08093C2020093C402A3
:101470008FEF80932F031092EA024093EB02AAECC5
:10148000B2E0FB0102C081918D938E2F861B8417E1
:10149000D0F31092C3028091C302550F852B809325
:1014A000C3028091C502813041F41092C50280913F
:1014B000C3028093BB0085EC01C085EE8093BC0025
:1014C000112321F08091C2028230E1F380912F0339
:1014D0008F3F11F480E00DC080912F03803211F412
:1014E00082E007C080912F03803311F084E001C0B7
:1014F00083E01F910F910895482F613210F081E031
:1015000008958091C202843011F082E008956093C2
:101510000D03ACEEB2E0842F9C01F90102C0819171
:101520008D938E2F841B8617D0F380E008951F9231
:101530000F920FB60F9211242F933F934F935F9307
:101540006F937F938F939F93AF93BF93EF93FF938B
:101550008091B90090E0887F90708036910509F401
:10156000F2C081369105CCF58832910509F47BC033
:1015700089329105B4F48031910509F46FC081314D
:1015800091053CF4009709F447C1089709F04FC151
:1015900065C08831910509F466C0809709F047C19C
:1015A00082C08034910509F4A4C08134910544F4CB
:1015B0008033910509F482C0C89709F038C189C009
:1015C0008035910509F489C08835910509F496C0E4
:1015D0008834910509F02BC1AEC08839910509F412
:1015E00013C189399105ECF48837910509F4ABC032
:1015F000893791054CF48836910509F4A4C08037E9
:10160000910509F014C19FC08838910509F4FCC008
:101610008039910509F49DC08038910509F007C112
:1016200098C0803B910509F4C6C0813B91054CF4FC
:10163000803A910509F49FC0883A910509F0F7C0F6
:10164000BAC0803C910509F4E3C0883C910509F4D7
:10165000DFC0883B910509F0EAC0C2C08091C30297
:101660008093BB00CFC09091EA028091EB02981763
:1016700068F49091EA02E92FF0E0E653FD4F808193
:101680008093BB009F5F9093EA02BCC08091C4022C
:10169000882309F44BC085ED8093BC008091BC0089
:1016A00084FDFCCFC2C080E280932F0385ED809340
:1016B000BC008091BC0084FDFCCFB7C080E3809368
:1016C0002F0385ED8093BC008091BC0084FDFCCF8E
:1016D000ACC088E380932F039BC08091EA02909175
:1016E000BB00E82FF0E0E653FD4F90838F5F8093BF
:1016F000EA029091EA028091EB0282C08091EA02B4
:101700009091BB00E82FF0E0E653FD4F90838F5F90
:101710008093EA028091C402882341F085ED809392
:10172000BC008091BC0084FDFCCF7FC081E0809331
:10173000C50284EA6EC085ED8093BC008091BC0038
:1017400084FDFCCF72C083E08093C20210922E030E
:1017500059C080912E03803208F056C080912E032C
:101760009091BB00E82FF0E0E25FFC4F90838F5F29
:1017700080932E0347C080912E03803230F4E09195
:101780002E03F0E0E25FFC4F108285ED8093BC00F9
:101790008091BC0084FDFCCF1092C20260912E03A8
:1017A000E091C802F091C9028EE093E070E00995E3
:1017B00010922E032DC084E08093C20210920C037D
:1017C00010920D03E091C602F091C7020995809135
:1017D0000D03882329F481E080930D031092EC021D
:1017E00090910C03E92FF0E0E451FD4F808180934C
:1017F000BB009F5F90930C0390910C0380910D03AD
:10180000981710F485EC01C085E88093BC000FC0E8
:1018100085EC8093BC0009C010922F0385ED809366
:10182000BC008091BC0084FDFCCF1092C202FF91ED
:10183000EF91BF91AF919F918F917F916F915F9148
:101840004F913F912F910F900FBE0F901F901895C1
:101850001092C20281E08093C4021092C50282E11C
:1018600061E00E94A00D83E161E00E94A00DE9EB20
:10187000F0E080818E7F808380818D7F808388E40B
:101880008093B80085E48093BC0008951F920F9266
:101890000FB60F9211242F933F938F939F93AF9383
:1018A000BF938091340390913503A0913603B0919A
:1018B0003703309138030196A11DB11D232F2D5FF1
:1018C0002D3720F02D570196A11DB11D209338030F
:1018D0008093340390933503A0933603B09337037A
:1018E0008091300390913103A0913203B091330382
:1018F0000196A11DB11D8093300390933103A093F5
:101900003203B0933303BF91AF919F918F913F9179
:101910002F910F900FBE0F901F9018959FB7F894BE
:1019200020913003309131034091320350913303C1
:1019300086B5A89B06C08F3F21F02F5F3F4F4F4FCA
:101940005F4F9FBF542F432F322F2227280F311D67
:10195000411D511D82E0220F331F441F551F8A95E0
:10196000D1F7B901CA010895019739F0880F991F7D
:10197000880F991F02970197F1F70895789484B51D
:10198000826084BD84B5816084BD85B5826085BD7B
:1019900085B5816085BDEEE6F0E080818160808361
:1019A000E1E8F0E010828081826080838081816044
:1019B0008083E0E8F0E0808181608083E1EBF0E00B
:1019C000808184608083E0EBF0E0808181608083AF
:1019D000EAE7F0E080818460808380818260808398
:1019E0008081816080838081806880831092C100C3
:1019F0000895EF92FF920F931F93CF93DF937B0194
:101A00008C013FB7F8948091300390913103A091FD
:101A10003203B091330326B5A89B05C02F3F19F0C0
:101A20000196A11DB11D3FBFBA2FA92F982F88275E
:101A3000820F911DA11DB11D52E0880F991FAA1F91
:101A4000BB1F5A95D1F7EC0130C00E942E113FB751
:101A5000F8948091300390913103A0913203B091BA
:101A6000330326B5A89B05C02F3F19F00196A11D91
:101A7000B11D3FBFBA2FA92F982F8827820F911D24
:101A8000A11DB11D32E0880F991FAA1FBB1F3A95F7
:101A9000D1F78C1B9D0B885E9340B8F20894E10847
:101AA000F10801091109C851DC4FE114F1040105E5
:101AB000110559F6DF91CF911F910F91FF90EF9093
:101AC0000895CF93DF93482F50E0CA0186589D4F69
:101AD000FC0134914A595D4FFA018491882369F1E0
:101AE00090E0880F991FFC01E85BFD4FA591B49130
:101AF000FC01EE5AFD4FC591D491662351F42FB7E6
:101B0000F8948C91932F909589238C9388818923C5
:101B10000BC0623061F42FB7F8948C91932F90959D
:101B200089238C938881832B88832FBF06C09FB71E
:101B3000F8948C91832B8C939FBFDF91CF91089564
:101B4000482F50E0CA0182579D4FFC012491CA01E1
:101B500086589D4FFC0194914A595D4FFA0134918A
:101B6000332309F440C0222351F1233071F0243093
:101B700028F42130A1F0223011F514C02630B1F044
:101B80002730C1F02430D9F404C0809180008F77D1
:101B900003C0809180008F7D8093800010C084B549
:101BA0008F7702C084B58F7D84BD09C08091B0005D
:101BB0008F7703C08091B0008F7D8093B000E32FBA
:101BC000F0E0EE0FFF1FEE5AFD4FA591B4912FB735
:101BD000F894662321F48C919095892302C08C910E
:101BE000892B8C932FBF0895682F70E0CB0182570B
:101BF0009D4FFC012491CB0186589D4FFC014491DF
:101C00006A597D4FFB019491992319F420E030E04B
:101C10003CC0222351F1233071F0243028F42130CC
:101C2000A1F0223011F514C02630B1F02730C1F0F8
:101C30002430D9F404C0809180008F7703C0809154
:101C400080008F7D8093800010C084B58F7702C0A4
:101C500084B58F7D84BD09C08091B0008F7703C0AB
:101C60008091B0008F7D8093B000892F90E0880F25
:101C7000991F845A9D4FFC01A591B4918C9120E04D
:101C800030E0842311F021E030E0C9010895089587
:101C90001F920F920FB60F9211242F933F934F93E1
:101CA0008F939F93EF93FF938091C00082FD19C0A3
:101CB0004091C60080915703282F30E02F5F3F4F9F
:101CC0002F7330708091580390E02817390759F02E
:101CD000E0915703F0E0E75CFC4F42A320935703E9
:101CE00002C08091C600FF91EF919F918F914F911B
:101CF0003F912F910F900FBE0F901F9018958091DC
:101D000057032091580390E0805C9F4F821B9109FC
:101D10008F739070892B11F00E94470E08951F92C7
:101D20000F920FB60F9211242F938F939F93EF93DF
:101D3000FF939091590380915A03981731F4809141
:101D4000C1008F7D8093C10010C0E0915A03F0E084
:101D5000E556FC4F208180915A0390E001968F73E5
:101D6000907080935A032093C600FF91EF919F914A
:101D70008F912F910F900FBE0F901F901895AF92DB
:101D8000BF92DF92EF92FF920F931F93CF93DF9357
:101D9000EC017A018B01DD24403081EE580780E0B0
:101DA000680780E0780711F0DD24D39491E0A92E34
:101DB000B12CE889F989DD2069F0C5010C8C02C0DD
:101DC000880F991F0A94E2F7808360E079E08DE341
:101DD00090E005C0108260E874E88EE190E0A80110
:101DE00097010E940C1221503040404050405695BF
:101DF00047953795279580E12030380720F0DD2082
:101E000011F0DD24D6CFEC85FD853083EE85FF858E
:101E100020831D8EEA89FB89408121E030E0C901E1
:101E2000088C02C0880F991F0A94E2F7482B408360
:101E3000EA89FB894081C901098C02C0880F991F7A
:101E40000A94E2F7482B4083EA89FB894081C90163
:101E50000A8C02C0880F991F0A94E2F7482B40832E
:101E6000EA89FB8980810B8C02C0220F331F0A9400
:101E7000E2F7209528232083DF91CF911F910F91C6
:101E8000FF90EF90DF90BF90AF900895FC01268DFA
:101E9000878D30E0205C3F4F281B31092F73307055
:101EA000C9010895FC01968D878D981719F42FEFBD
:101EB0003FEF06C0878DE80FF11D82A1282F30E08B
:101EC000C9010895DC015E969C915E975F968C91A6
:101ED0005F97981719F42FEF3FEF10C05F968C9122
:101EE0005F97FD01E80FF11D92A15F968C915F97BE
:101EF0008F5F8F735F968C93292F30E0C90108950F
:101F0000DC015D968C915D97882339F05096ED91B8
:101F1000FC915197808186FFF9CF5D961C920895C0
:101F2000DC0190968C919097282F30E02F5F3F4FE7
:101F30002F73307091968C91919790E02817390704
:101F4000C9F390968C919097FD01E80FF11DEE5921
:101F5000FF4F608390962C9390975296ED91FC9151
:101F60005397208181E090E05B960C905B9702C0D4
:101F7000880F991F0A94E2F7282B208381E05D9651
:101F80008C935D975096ED91FC9151978081806480
:101F9000808381E090E0089510923C0310923B030F
:101FA00088EE93E0A0E0B0E080933D0390933E0381
:101FB000A0933F03B09340038AE292E090933A03E8
:101FC0008093390310925A0380915A0380935903E6
:101FD00010925803809158038093570385EC90E04A
:101FE000909346038093450384EC90E090934803DC
:101FF0008093470380EC90E090934A0380934903D9
:1020000081EC90E090934C0380934B0382EC90E042
:1020100090934E0380934D0386EC90E09093500391
:1020200080934F0384E08093510383E080935203B5
:1020300087E08093530385E08093540381E080938D
:1020400055030895CF93DF930E94BE0C0E94350480
:10205000CFE7DEE00E948C012097E1F30E947F0E23
:10206000F9CFCF92DF92EF92FF920F931F93CF930E
:10207000DF937C016B018A01C0E0D0E00FC0D60184
:102080006D916D01D701ED91FC910190F081E02DF2
:10209000C7010995C80FD91F01501040011511053E
:1020A00071F7CE01DF91CF911F910F91FF90EF90CB
:1020B000DF90CF900895CF93DF93EC016115710508
:1020C00019F420E030E00FC0DB010D900020E9F7AB
:1020D0001197A61BB70BE881F9810280F381E02DEF
:1020E000AD0109959C01C901DF91CF9108954F92EF
:1020F0005F927F928F929F92AF92BF92CF92DF9228
:10210000EF92FF920F931F93DF93CF93CDB7DEB77C
:10211000A1970FB6F894DEBF0FBECDBF2C01742E71
:10212000CB01223008F42AE019A231E2C32ED12CCF
:10213000CC0EDD1E822E9924AA24BB24672D752F78
:10214000A50194010E940C1279018A01C801B7010E
:10215000A50194010E94C611472D461B0894C10891
:10216000D1084A3014F4405D01C0495CF601408357
:10217000E114F1040105110521F07E2C5F2DC80149
:10218000DDCFC201B6010E945B10A1960FB6F89494
:10219000DEBF0FBECDBFCF91DF911F910F91FF909A
:1021A000EF90DF90CF90BF90AF909F908F907F90F7
:1021B0005F904F900895CF92DF92EF92FF920F932E
:1021C0001F93CF93DF93EC016A017B012115310549
:1021D00041F4E881F9810190F081E02D642F0995A7
:1021E0001FC02A303105D1F477FF17C0E881F9818B
:1021F0000190F081E02D6DE209958C01442755276F
:10220000BA014C195D096E097F09CE012AE00E94CE
:1022100077109801280F391F04C02AE00E94771018
:102220009C01C901DF91CF911F910F91FF90EF9019
:10223000DF90CF900895EF92FF920F931F937B0151
:102240009A010027F7FC0095102FB801A7010E9402
:10225000DB101F910F91FF90EF900895089504D027
:102260006894B1118DC0089570D088F09F5790F098
:10227000B92F9927B751A0F0D1F0660F771F881FAB
:10228000991F1AF0BA95C9F712C0B13081F077D012
:10229000B1E0089574C0672F782F8827B85F39F0B0
:1022A000B93FCCF3869577956795B395D9F73EF40A
:1022B00090958095709561957F4F8F4F9F4F0895B2
:1022C000E89409C097FB3EF49095809570956195D0
:1022D0007F4F8F4F9F4F9923A9F0F92F96E9BB2786
:1022E0009395F695879577956795B795F111F8CF02
:1022F000FAF4BB0F11F460FF1BC06F5F7F4F8F4F6D
:102300009F4F16C0882311F096E911C0772321F062
:102310009EE8872F762F05C0662371F096E8862FFA
:1023200070E060E02AF09A95660F771F881FDAF751
:10233000880F9695879597F9089557FD9058440F03
:10234000551F59F05F3F71F04795880F97FB991F14
:1023500061F09F3F79F087950895121613061406D1
:10236000551FF2CF4695F1DF08C01616170618065E
:10237000991FF1CF86957105610508940895E89439
:10238000BB2766277727CB0197F90895629FD00175
:10239000739FF001829FE00DF11D649FE00DF11D20
:1023A000929FF00D839FF00D749FF00D659FF00DCF
:1023B0009927729FB00DE11DF91F639FB00DE11DBC
:1023C000F91FBD01CF0111240895AA1BBB1B51E1C8
:1023D00007C0AA1FBB1FA617B70710F0A61BB70B95
:1023E000881F991F5A95A9F780959095BC01CD013A
:1023F000089597FB092E07260AD077FD04D0E5DF64
:1024000006D000201AF4709561957F4F0895F6F775
:10241000909581959F4F0895A1E21A2EAA1BBB1B90
:10242000FD010DC0AA1FBB1FEE1FFF1FA217B307A0
:10243000E407F50720F0A21BB30BE40BF50B661FB6
:10244000771F881F991F1A9469F76095709580957A
:1024500090959B01AC01BD01CF010895EE0FFF1FC8
:0C2460000590F491E02D0994F894FFCF52
:10246C0052543A00632020202020202020202020BD
:10247C00202020202000632020202020202020202D
:10248C00202020202020006320202020202020201D
:10249C002020202020200052483A002520202020F7
:1024AC00202020202020202020202020002520203B
:1024BC00202020202020202020202020200025202B
:1024CC0020202020202020202020202020004368B5
:1024DC0065636B73756D206572726F72202020209E
:1024EC00004E6F7420636F6E6E656374656420209C
:1024FC0020202000556E6B6E6F776E206572726FA8
:10250C00720057534E2D532056322E30002D2D2D48
:10251C002D2D2D2D2D2D2D2D2D2D2D2D2D2D2D2DDF
:10252C002D2D2D2D2D2D005A69676265652050616A
:10253C006E69643A005A6967626565204368616E2A
:10254C006E656C3A0057534E2044657620416464A6
:10255C003A0020006572726F720030680700AAAAF8
:10256C005555A5A5C3B50000FFFFFFFFFF5B00009D
:10257C0000004107311000000000D509A4095D09D5
:10258C0066097B098C0900000000900F3110460F82
:06259C00620F520F800FD8
:00000001FF
