:100000000C9462000C948A000C948A000C948A0070
:100010000C948A000C948A000C948A000C948A0038
:100020000C948A000C948A000C948A000C948A0028
:100030000C948A000C948A000C948A000C948A0018
:100040000C9462010C948A000C9403030C944A03F0
:100050000C948A000C948A000C948A000C948A00F8
:100060000C948A000C948A000000000024002700F1
:100070002A0000000000250028002B0000000000DE
:1000800023002600290004040404040404040202DA
:100090000202020203030303030301020408102007
:1000A0004080010204081020010204081020000012
:1000B0000007000201000003040600000000000029
:1000C0000000870411241FBECFEFD8E0DEBFCDBFF4
:1000D00011E0A0E0B1E0E2E8FAE002C005900D9284
:1000E000AC31B107D9F711E0ACE1B1E001C01D922C
:1000F000AC3DB107E1F710E0C4ECD0E004C02297BA
:10010000FE010E943B05C23CD107C9F70E94DD04F5
:100110000C943F050C940000CF93DF938091040171
:100120000E944D0290931E0180931D0180911C013D
:1001300091E0892780931C01882321F48091080194
:1001400060E003C08091080161E00E94AE028091EE
:100150001D0190911E0181359105A4F08091060149
:1001600060E00E94AE0281E080932B01C8E2D1E002
:100170008AE391E069910E944B0481E0C133D80782
:10018000B9F718C08FEF80932B018091060161E0D1
:100190000E94AE020FC08AE391E00E941D04899381
:1001A00081E0C832D807B9F763E070E080E090E002
:1001B0000E94E5018AE391E00E94010418161906E5
:1001C0001CF4CFE1D1E0E7CF68EE73E080E090E08F
:1001D0000E94E50180911F01853A09F041C080919C
:1001E00027018A35E9F540912001242F30E08091E4
:1001F0000001909101012817390751F480912101E4
:1002000090E020910201309103018217930731F0B1
:10021000442331F580912101882311F58091220139
:100220008F3FF1F4809123018F3FD1F4809124011D
:100230008F3FB1F4809125018F3F91F48091260189
:100240008F3F71F4C8E2D1E08AE391E069910E94A6
:100250004B0481E0C133D807B9F78FEF80931F01BA
:10026000DF91CF91089585EB809328018091000163
:10027000809329018091020180932A018FEF80935E
:100280002C0180932D0180932E0180932F018BE50B
:10029000809330018091040160E00E946F028091A0
:1002A000060161E00E946F028091080161E00E94F6
:1002B0006F028AE391E040E855E260E070E00E945E
:1002C0007A0308951F920F920FB60F9211242F9365
:1002D0003F938F939F93AF93BF93809135019091FC
:1002E0003601A0913701B091380130913901019662
:1002F000A11DB11D232F2D5F2D3720F02D57019605
:10030000A11DB11D209339018093350190933601D1
:10031000A0933701B093380180913101909132015F
:10032000A0913301B09134010196A11DB11D8093BC
:10033000310190933201A0933301B0933401BF9106
:10034000AF919F918F913F912F910F900FBE0F9082
:100350001F901895789484B5826084BD84B58160BF
:1003600084BD85B5826085BD85B5816085BDEEE6BD
:10037000F0E0808181608083E1E8F0E0108280819C
:1003800082608083808181608083E0E8F0E080810A
:1003900081608083E1EBF0E0808184608083E0EB2A
:1003A000F0E0808181608083EAE7F0E08081846012
:1003B000808380818260808380818160808380816E
:1003C000806880831092C1000895EF92FF920F938E
:1003D0001F93CF93DF937B018C013FB7F8948091FB
:1003E000310190913201A0913301B091340126B5D1
:1003F000A89B05C02F3F19F00196A11DB11D3FBF5D
:10040000BA2FA92F982F8827820F911DA11DB11DEA
:1004100052E0880F991FAA1FBB1F5A95D1F7EC0114
:1004200030C00E9416053FB7F89480913101909139
:100430003201A0913301B091340126B5A89B05C0CB
:100440002F3F19F00196A11DB11D3FBFBA2FA92F53
:10045000982F8827820F911DA11DB11D32E0880FB2
:10046000991FAA1FBB1F3A95D1F78C1B9D0B885E65
:100470009340B8F20894E108F10801091109C85144
:10048000DC4FE114F1040105110559F6DF91CF911C
:100490001F910F91FF90EF900895982F8E3008F0E4
:1004A0009E50977080910A018295880F880F807CFA
:1004B000892B80937C0080917A00806480937A00FD
:1004C00080917A0086FDFCCF2091780040917900E0
:1004D000942F80E030E0282B392BC9010895CF9369
:1004E000DF93482F50E0CA0186569F4FFC0134919C
:1004F0004A575F4FFA018491882369F190E0880F91
:10050000991FFC01E859FF4FA591B491FC01EE58E9
:10051000FF4FC591D491662351F42FB7F8948C9175
:10052000932F909589238C93888189230BC0623007
:1005300061F42FB7F8948C91932F909589238C9325
:100540008881832B88832FBF06C09FB7F8948C9136
:10055000832B8C939FBFDF91CF910895482F50E05C
:10056000CA0182559F4FFC012491CA0186569F4FB4
:10057000FC0194914A575F4FFA013491332309F4F7
:1005800040C0222351F1233071F0243028F421306F
:10059000A1F0223011F514C02630B1F02730C1F09F
:1005A0002430D9F404C0809180008F7703C08091FB
:1005B00080008F7D8093800010C084B58F7702C04B
:1005C00084B58F7D84BD09C08091B0008F7703C052
:1005D0008091B0008F7D8093B000E32FF0E0EE0FAC
:1005E000FF1FEE58FF4FA591B4912FB7F8946623E3
:1005F00021F48C919095892302C08C91892B8C9346
:100600002FBF089508951F920F920FB60F921124D5
:100610002F933F934F938F939F93EF93FF938091EB
:10062000C00082FD19C04091C60080915801282F5A
:1006300030E02F5F3F4F2F7330708091590190E071
:100640002817390759F0E0915801F0E0E65CFE4FB9
:1006500042A32093580102C08091C600FF91EF9100
:100660009F918F914F913F912F910F900FBE0F90BF
:100670001F901895809158012091590190E0805C5D
:100680009F4F821B91098F739070892B11F00E94EC
:10069000020308951F920F920FB60F9211242F9309
:1006A0008F939F93EF93FF9390915A0180915B01F9
:1006B000981731F48091C1008F7D8093C10010C0E4
:1006C000E0915B01F0E0E456FE4F208180915B01F8
:1006D00090E001968F73907080935B012093C60029
:1006E000FF91EF919F918F912F910F900FBE0F90DF
:1006F0001F901895AF92BF92DF92EF92FF920F93E7
:100700001F93CF93DF93EC017A018B01DD244030FE
:1007100081EE580780E0680780E0780711F0DD245B
:10072000D39491E0A92EB12CE889F989DD2069F0F4
:10073000C5010C8C02C0880F991F0A94E2F78083D0
:1007400060E079E08DE390E005C0108260E874E835
:100750008EE190E0A80197010E94170521503040DA
:1007600040405040569547953795279580E1203079
:10077000380720F0DD2011F0DD24D6CFEC85FD8593
:100780003083EE85FF8520831D8EEA89FB894081B9
:1007900021E030E0C901088C02C0880F991F0A943B
:1007A000E2F7482B4083EA89FB894081C901098C23
:1007B00002C0880F991F0A94E2F7482B4083EA8908
:1007C000FB894081C9010A8C02C0880F991F0A94D5
:1007D000E2F7482B4083EA89FB8980810B8C02C0B9
:1007E000220F331F0A94E2F7209528232083DF91FC
:1007F000CF911F910F91FF90EF90DF90BF90AF903E
:100800000895FC01268D878D30E0205C3F4F281B2A
:1008100031092F733070C9010895FC01968D878DC1
:10082000981719F42FEF3FEF06C0878DE80FF11DE1
:1008300082A1282F30E0C9010895DC015E969C91C9
:100840005E975F968C915F97981719F42FEF3FEFA3
:1008500010C05F968C915F97FD01E80FF11D92A18A
:100860005F968C915F978F5F8F735F968C93292F24
:1008700030E0C9010895DC015D968C915D97882375
:1008800039F05096ED91FC915197808186FFF9CF18
:100890005D961C920895DC0190968C919097282F7C
:1008A00030E02F5F3F4F2F73307091968C9191976E
:1008B00090E028173907C9F390968C919097FD0125
:1008C000E80FF11DEE59FF4F608390962C9390979F
:1008D0005296ED91FC915397208181E090E05B96D8
:1008E0000C905B9702C0880F991F0A94E2F7282B9F
:1008F000208381E05D968C935D975096ED91FC91FD
:10090000519780818064808381E090E00895109207
:100910003D0110923C0188EE93E0A0E0B0E08093AE
:100920003E0190933F01A0934001B09341018FE0BD
:1009300091E090933B0180933A0110925B0180918A
:100940005B0180935A011092590180915901809363
:10095000580185EC90E0909347018093460184EC28
:1009600090E0909349018093480180EC90E090934F
:100970004B0180934A0181EC90E090934D0180936C
:100980004C0182EC90E090934F0180934E0186ECF5
:1009900090E0909351018093500184E08093520144
:1009A00083E08093530187E08093540185E0809336
:1009B000550181E0809356010895CF93DF930E9403
:1009C000AA010E943301CAE3D3E00E948C00209761
:1009D000E1F30E943A03F9CFCF92DF92EF92FF92B8
:1009E0000F931F93CF93DF937C016B018A01C0E0CB
:1009F000D0E00FC0D6016D916D01D701ED91FC9152
:100A00000190F081E02DC7010995C80FD91F015051
:100A100010400115110571F7CE01DF91CF911F91A3
:100A20000F91FF90EF90DF90CF9008950895A1E28D
:100A30001A2EAA1BBB1BFD010DC0AA1FBB1FEE1F58
:100A4000FF1FA217B307E407F50720F0A21BB30BA3
:100A5000E40BF50B661F771F881F991F1A9469F71F
:100A600060957095809590959B01AC01BD01CF017B
:100A70000895EE0FFF1F0590F491E02D0994F8946E
:020A8000FFCFA6
:100A82006000370010001100070001000000004B59
:0C0A920004EC0401041D040D043B0400EE
:00000001FF
