:100000000C9462000C948A000C948A000C948A0070
:100010000C948A000C948A000C948A000C948A0038
:100020000C948A000C948A000C948A000C948A0028
:100030000C948A000C948A000C948A000C948A0018
:100040000C9458010C948A000C942A030C947103AC
:100050000C948A000C948A000C948A000C948A00F8
:100060000C948A000C948A000000000024002700F1
:100070002A0000000000250028002B0000000000DE
:1000800023002600290004040404040404040202DA
:100090000202020203030303030301020408102007
:1000A0004080010204081020010204081020000012
:1000B0000007000201000003040600000000000029
:1000C0000000AE0411241FBECFEFD8E0DEBFCDBFCD
:1000D00011E0A0E0B1E0E0EDFAE002C005900D9281
:1000E000A631B107D9F711E0A6E1B1E001C01D9238
:1000F000A63DB107E1F710E0C4ECD0E004C02297C0
:10010000FE010E946205C23CD107C9F70E940405A6
:100110000C9466050C940000CF93DF9380912A0124
:1001200091E0892780932A01882321F4809104019A
:1001300060E003C08091040161E00E94820281E1DD
:100140000E94D602682F809316019093170180E1D8
:100150000E9482028091160190911701019779F413
:1001600081E080932401C1E2D1E084E391E06991D0
:100170000E94720481E0CA32D807B9F713C08FEF2A
:10018000809324010FC084E391E00E94440489938A
:1001900081E0C132D807B9F763E070E080E090E019
:1001A0000E94DB0184E391E00E94280418161906DE
:1001B0001CF4C8E1D1E0E7CF60ED77E080E090E0AB
:1001C0000E94DB0180911801853A09F041C08091BD
:1001D00020018A35E9F540911901242F30E0809102
:1001E0000001909101012817390751F480911A01FB
:1001F00090E020910201309103018217930731F0C2
:10020000442331F580911A01882311F580911B0157
:100210008F3FF1F480911C018F3FD1F480911D013B
:100220008F3FB1F480911E018F3F91F480911F01A7
:100230008F3F71F4C1E2D1E084E391E069910E94C3
:10024000720481E0CA32D807B9F78FEF80931801A2
:10025000DF91CF91089585EB80932101809100017A
:100260008093220180910201809323018FEF80937C
:1002700025018093260180932701809328018BE537
:100280008093290180E161E00E94430281E160E006
:100290000E9443028091040161E00E94430284E3D2
:1002A00091E040E855E260E070E00E94A10308950B
:1002B0001F920F920FB60F9211242F933F938F939B
:1002C0009F93AF93BF9380912F0190913001A091A4
:1002D0003101B0913201309133010196A11DB11D60
:1002E000232F2D5F2D3720F02D570196A11DB11D15
:1002F0002093330180932F0190933001A09331011B
:10030000B093320180912B0190912C01A0912D018D
:10031000B0912E010196A11DB11D80932B019093E8
:100320002C01A0932D01B0932E01BF91AF919F910D
:100330008F913F912F910F900FBE0F901F901895A6
:10034000789484B5826084BD84B5816084BD85B5B0
:10035000826085BD85B5816085BDEEE6F0E0808177
:1003600081608083E1E8F0E0108280818260808398
:10037000808181608083E0E8F0E08081816080831B
:10038000E1EBF0E0808184608083E0EBF0E080814D
:1003900081608083EAE7F0E08081846080838081EF
:1003A0008260808380818160808380818068808397
:1003B0001092C1000895EF92FF920F931F93CF9375
:1003C000DF937B018C013FB7F89480912B019091D2
:1003D0002C01A0912D01B0912E0126B5A89B05C03E
:1003E0002F3F19F00196A11DB11D3FBFBA2FA92FB4
:1003F000982F8827820F911DA11DB11D52E0880FF3
:10040000991FAA1FBB1F5A95D1F7EC0130C00E945B
:100410003D053FB7F89480912B0190912C01A0915C
:100420002D01B0912E0126B5A89B05C02F3F19F0D4
:100430000196A11DB11D3FBFBA2FA92F982F882764
:10044000820F911DA11DB11D32E0880F991FAA1FB7
:10045000BB1F3A95D1F78C1B9D0B885E9340B8F279
:100460000894E108F10801091109C851DC4FE114B1
:10047000F1040105110559F6DF91CF911F910F91FC
:10048000FF90EF900895CF93DF93482F50E0CA017B
:1004900086569F4FFC0134914A575F4FFA01849171
:1004A000882369F190E0880F991FFC01E859FF4FFC
:1004B000A591B491FC01EE58FF4FC591D4916623EC
:1004C00051F42FB7F8948C91932F909589238C93A6
:1004D000888189230BC0623061F42FB7F8948C9126
:1004E000932F909589238C938881832B88832FBFAA
:1004F00006C09FB7F8948C91832B8C939FBFDF919C
:10050000CF910895482F50E0CA0182559F4FFC01BA
:100510002491CA0186569F4FFC0194914A575F4F20
:10052000FA013491332309F440C0222351F12330DE
:1005300071F0243028F42130A1F0223011F514C0DC
:100540002630B1F02730C1F02430D9F404C08091B6
:1005500080008F7703C0809180008F7D8093800022
:1005600010C084B58F7702C084B58F7D84BD09C06B
:100570008091B0008F7703C08091B0008F7D809311
:10058000B000E32FF0E0EE0FFF1FEE58FF4FA591F4
:10059000B4912FB7F894662321F48C919095892318
:1005A00002C08C91892B8C932FBF0895682F70E027
:1005B000CB0182559F4FFC012491CB0186569F4F62
:1005C000FC0144916A577F4FFB019491992319F4E0
:1005D00020E030E03CC0222351F1233071F0243080
:1005E00028F42130A1F0223011F514C02630B1F0EA
:1005F0002730C1F02430D9F404C0809180008F7777
:1006000003C0809180008F7D8093800010C084B5EE
:100610008F7702C084B58F7D84BD09C08091B00002
:100620008F7703C08091B0008F7D8093B000892FB9
:1006300090E0880F991F84589F4FFC01A591B491B9
:100640008C9120E030E0842311F021E030E0C901FA
:10065000089508951F920F920FB60F9211242F93B1
:100660003F934F938F939F93EF93FF938091C0009D
:1006700082FD19C04091C60080915201282F30E0C0
:100680002F5F3F4F2F7330708091530190E02817F8
:10069000390759F0E0915201F0E0EC5CFE4F42A3C3
:1006A0002093520102C08091C600FF91EF919F916B
:1006B0008F914F913F912F910F900FBE0F901F90F0
:1006C0001895809152012091530190E0805C9F4FDA
:1006D000821B91098F739070892B11F00E9429035E
:1006E00008951F920F920FB60F9211242F938F939C
:1006F0009F93EF93FF939091540180915501981728
:1007000031F48091C1008F7D8093C10010C0E091D1
:100710005501F0E0EA56FE4F20818091550190E0AE
:1007200001968F739070809355012093C600FF91BE
:10073000EF919F918F912F910F900FBE0F901F906F
:100740001895AF92BF92DF92EF92FF920F931F9393
:10075000CF93DF93EC017A018B01DD24403081EEF1
:10076000580780E0680780E0780711F0DD24D39413
:1007700091E0A92EB12CE889F989DD2069F0C50145
:100780000C8C02C0880F991F0A94E2F7808360E006
:1007900079E08DE390E005C0108260E874E88EE1B6
:1007A00090E0A80197010E943E0521503040404052
:1007B0005040569547953795279580E1203038076A
:1007C00020F0DD2011F0DD24D6CFEC85FD853083CF
:1007D000EE85FF8520831D8EEA89FB89408121E01B
:1007E00030E0C901088C02C0880F991F0A94E2F713
:1007F000482B4083EA89FB894081C901098C02C0EA
:10080000880F991F0A94E2F7482B4083EA89FB89F5
:100810004081C9010A8C02C0880F991F0A94E2F72F
:10082000482B4083EA89FB8980810B8C02C0220F10
:10083000331F0A94E2F7209528232083DF91CF917C
:100840001F910F91FF90EF90DF90BF90AF900895B0
:10085000FC01268D878D30E0205C3F4F281B31093D
:100860002F733070C9010895FC01968D878D9817FC
:1008700019F42FEF3FEF06C0878DE80FF11D82A11D
:10088000282F30E0C9010895DC015E969C915E97A7
:100890005F968C915F97981719F42FEF3FEF10C078
:1008A0005F968C915F97FD01E80FF11D92A15F9615
:1008B0008C915F978F5F8F735F968C93292F30E0B9
:1008C000C9010895DC015D968C915D97882339F00C
:1008D0005096ED91FC915197808186FFF9CF5D96FE
:1008E0001C920895DC0190968C919097282F30E00F
:1008F0002F5F3F4F2F73307091968C91919790E0BE
:1009000028173907C9F390968C919097FD01E80F4D
:10091000F11DEE59FF4F608390962C93909752965D
:10092000ED91FC915397208181E090E05B960C90D3
:100930005B9702C0880F991F0A94E2F7282B208347
:1009400081E05D968C935D975096ED91FC91519767
:1009500080818064808381E090E008951092370167
:100960001092360188EE93E0A0E0B0E08093380169
:1009700090933901A0933A01B0933B018AE091E052
:100980009093350180933401109255018091550167
:10099000809354011092530180915301809352012E
:1009A00085EC90E0909341018093400184EC90E0CD
:1009B000909343018093420180EC90E09093450135
:1009C0008093440181EC90E090934701809346012D
:1009D00082EC90E0909349018093480186EC90E08E
:1009E00090934B0180934A0184E080934C0183E013
:1009F00080934D0187E080934E0185E080934F0105
:100A000081E0809350010895CF93DF930E94A0016D
:100A10000E942B01C1E6D3E00E948C002097E1F3F5
:100A20000E946103F9CFCF92DF92EF92FF920F9372
:100A30001F93CF93DF937C016B018A01C0E0D0E06C
:100A40000FC0D6016D916D01D701ED91FC91019020
:100A5000F081E02DC7010995C80FD91F0150104042
:100A60000115110571F7CE01DF91CF911F910F9103
:100A7000FF90EF90DF90CF9008950895A1E21A2E95
:100A8000AA1BBB1BFD010DC0AA1FBB1FEE1FFF1F32
:100A9000A217B307E407F50720F0A21BB30BE40B82
:100AA000F50B661F771F881F991F1A9469F76095C9
:100AB0007095809590959B01AC01BD01CF01089583
:100AC000EE0FFF1F0590F491E02D0994F894FFCFED
:100AD00050004200070000000000720413052804C3
:060AE0004404340462042A
:00000001FF
