:100000000C9454010C94F70A0C94240B0C947C016E
:100010000C947C010C947C010C947C010C947C016C
:100020000C947C010C947C010C947C010C947C015C
:100030000C947C010C947C010C947C010C947C014C
:100040000C94510B0C947C010C94230D0C946A0DB0
:100050000C947C010C947C010C947C010C947C012C
:100060000C9425090C947C01000000000000005F46
:1000700000000007000700147F147F14242A7F2A41
:100080001223130864623649562050000807030003
:10009000001C2241000041221C002A1C7F1C2A084F
:1000A000083E0808008070300008080808080000B2
:1000B00060600020100804023E5149453E00427F26
:1000C000400072494949462141494D331814127F75
:1000D0001027454545393C4A494931412111090715
:1000E0003649494936464949291E00001400000096
:1000F0004034000000081422411414141414004168
:1001000022140802015909063E415D594E7C121124
:10011000127C7F494949363E414141227F4141415C
:100120003E7F494949417F090909013E41415173D7
:100130007F0808087F00417F41002040413F017F48
:10014000081422417F404040407F021C027F7F0410
:1001500008107F3E4141413E7F090909063E415159
:10016000215E7F09192946264949493203017F0149
:10017000033F4040403F1F2040201F3F4038403F4A
:10018000631408146303047804036159494D430060
:100190007F4141410204081020004141417F040297
:1001A000010204404040404000030708002054542E
:1001B00078407F284444383844444428384444280C
:1001C0007F385454541800087E090218A4A49C785F
:1001D0007F0804047800447D40002040403D007FBB
:1001E0001028440000417F40007C047804787C089B
:1001F0000404783844444438FC182424181824246F
:1002000018FC7C08040408485454542404043F4453
:10021000243C4040207C1C2040201C3C4030403C82
:1002200044281028444C9090907C4464544C4400E2
:100230000836410000007700000041360800020146
:100240000204023C2623263C000000002400270074
:100250002A0000000000250028002B0000000000FC
:1002600023002600290004040404040404040202F8
:100270000202020203030303030301020408102025
:100280004080010204081020010204081020000030
:100290000007000201000003040600000000000047
:1002A00000007E011B08A70E11241FBECFEFD8E06F
:1002B000DEBFCDBF11E0A0E0B1E0EEE8F0E202C0A9
:1002C00005900D92A23EB107D9F713E0A2EEB1E07E
:1002D00001C01D92AF37B107E1F712E0C8EAD2E0E2
:1002E00004C02297FE010E944110C23AD107C9F70B
:1002F0000E94FD0E0C9445100C9400001092E50134
:100300001092E4018DEB91E09093E3018093E20180
:1003100085E08093ED0108951F93CF93DF93809143
:10032000FB0191E089278093FB01882321F48091D0
:10033000A20160E003C08091A20161E00E947B0CF9
:100340008091FC019091FD0181569A4E20F010920F
:10035000FD011092FC018091FE019091FF018156F8
:100360009A4E20F01092FF011092FE0110910002AF
:10037000113059F58091A60161E00E947B0C109329
:10038000B3018091FC019091FD0101969093FD01D4
:100390008093FC01C0EBD1E08DED92E069910E9469
:1003A0006B0E81E0C93BD807B9F764E670E080E0E6
:1003B00090E00E94D40B109200028FEF8093B30163
:1003C0008091A60160E00E947B0C10910002123027
:1003D00059F58091A60161E00E947B0C1093B30156
:1003E0008091FE019091FF0101969093FF0180930F
:1003F000FE01C0EBD1E08DED92E069910E946B0EA1
:1004000021E0C93BD207B9F764E670E080E090E0F4
:100410000E94D40B109200028FEF8093B301809161
:10042000A60160E00E947B0C82EE91E065E040E076
:100430000E94AB0511E01093E8011093E90182EEF0
:1004400091E060E071E00E941F078091FC019091B3
:10045000FD018A30910578F482EE91E065E04FE18C
:100460000E94AB051093E8011093E90182EE91E040
:1004700065E071E036C08436910578F482EE91E053
:1004800065E045E20E94AB051093E8011093E90195
:1004900082EE91E066E171E024C023E0883E92079D
:1004A00078F482EE91E065E04BE20E94AB05109398
:1004B000E8011093E90182EE91E066E271E011C07B
:1004C0008051974280F482EE91E065E041E30E9422
:1004D000AB051093E8011093E90182EE91E065E32A
:1004E00071E00E941F0782EE91E065E049E10E9401
:1004F000AB0511E01093E8011093E9016091FC0154
:100500007091FD0182EE91E04AE050E00E94C50F3B
:1005100082EE91E066E040E00E94AB051093E801B6
:100520001093E90182EE91E063E471E00E941F07FD
:100530008091FE019091FF018A30910578F482EE5E
:1005400091E066E04FE10E94AB051093E801109343
:10055000E90182EE91E065E071E036C084369105F4
:1005600078F482EE91E066E045E20E94AB051093DC
:10057000E8011093E90182EE91E066E171E024C0A8
:1005800023E0883E920778F482EE91E066E04BE249
:100590000E94AB051093E8011093E90182EE91E00F
:1005A00066E271E011C08051974280F482EE91E0E2
:1005B00066E041E30E94AB051093E8011093E90166
:1005C00082EE91E065E371E00E941F0782EE91E008
:1005D00066E049E10E94AB0581E08093E8018093E9
:1005E000E9016091FE017091FF0182EE91E04AE025
:1005F00050E00E94C50F0FC08DED92E00E943D0EAD
:10060000899382E0CB30D807B9F763E070E080E0EF
:1006100090E00E94D40B8DED92E00E94210E1816FE
:1006200019061CF4C2E0D2E0E7CF64EF71E080E08D
:1006300090E00E94D40B80910202853AC1F580912E
:100640000A028A35A1F5209103028091A0012817A2
:1006500031F4909104028091A101981731F0222386
:1006600031F580910402882311F5809105028F3FB6
:10067000F1F4809106028F3FD1F4809107028F3F01
:10068000B1F4809108028F3F91F4809109028F3F6D
:1006900071F4C0EBD1E08DED92E069910E946B0E98
:1006A00021E0C93BD207B9F78FEF80930202DF91B7
:1006B000CF911F9108958091A4010E94CF0C809347
:1006C000A801882319F482E08093000208958091A4
:1006D000A4010E94CF0C8093A801882319F481E023
:1006E0008093000208951F93CF93DF9368EE73E029
:1006F00080E090E00E94D40B8DED92E040E855E25E
:1007000060E070E00E949A0D8091A40160E00E9478
:100710003C0C8091A60161E00E943C0C8091A201FA
:1007200061E00E943C0C8091A60161E00E947B0C7C
:1007300066E970E080E090E00E94D40B8091A60111
:1007400060E00E947B0C80E067E673E042E050E0EE
:100750000E94D40A81E06BE573E042E050E00E9421
:10076000D40A8091A0018093B1018091A10180936E
:10077000B20182EE91E00E944E0782EE91E00E946B
:10078000D80682EE91E060E044E20E94AB0511E001
:100790001093E8011093E90182EE91E068E471E0C2
:1007A0000E941F0782EE91E061E041E00E94AB05EC
:1007B0001093E8011092E90182EE91E063E571E0A7
:1007C0000E941F0782EE91E062E040E00E94AB05CC
:1007D0001093E8011093E90182EE91E06DE671E07B
:1007E0000E941F0782EE91E063E040E00E94AB05AB
:1007F0001093E8011093E90182EE91E06BE771E05C
:100800000E941F0782EE91E064E040E00E94AB0589
:100810001093E8011093E90182EE91E06BE871E03A
:100820000E941F0782EE91E064E048E40E94AB055D
:100830001093E8011093E9016091A00162956F7037
:100840006A3014F0695A01C0605D82EE91E00E9446
:10085000CF0582EE91E064E04EE40E94AB0581E0BA
:100860008093E8018093E9016091A0016F706A3084
:1008700014F0695A01C0605D82EE91E00E94CF05DC
:1008800082EE91E064E044E50E94AB0511E0109334
:10089000E8011093E90182EE91E068E971E00E94BD
:1008A0001F0782EE91E064E04AE50E94AB051093D9
:1008B000E8011093E9016091A10162956F706A30BF
:1008C00014F0695A01C0605D82EE91E00E94CF058C
:1008D00082EE91E064E040E60E94AB0581E0809307
:1008E000E8018093E9016091A1016F706A3014F012
:1008F000695A01C0605D82EE91E00E94CF05CFC0D1
:10090000FE01E755FE4F8DED92E060810E946B0E77
:100910002196C730D105A4F368EE73E080E090E043
:100920000DC08DED92E00E943D0E899382E0C031B2
:10093000D807B9F763E070E080E090E00E94D40B44
:100940008DED92E00E94210E181619061CF4CBE0E2
:10095000D2E0E7CF68EE73E080E090E00E94D40B35
:1009600080910B028A3A09F093C080910C02833C7B
:1009700009F08EC082EE91E062E04EE40E94AB0589
:1009800081E08093E8018093E90160910E02629515
:100990006F706A3014F0695A01C0605D82EE91E0B8
:1009A0000E94CF0582EE91E062E044E50E94AB0533
:1009B00081E08093E8018093E90160910E026F70FD
:1009C0006A3014F0695A01C0605D82EE91E00E94C5
:1009D000CF0582EE91E062E04AE50E94AB0581E03E
:1009E0008093E8018093E90160910D0262956F7038
:1009F0006A3014F0695A01C0605D82EE91E00E9495
:100A0000CF0582EE91E062E040E60E94AB0581E016
:100A10008093E8018093E90160910D026F706A3064
:100A200014F0695A01C0605D82EE91E00E94CF052A
:100A300082EE91E063E04AE50E94AB0581E080939D
:100A4000E8018093E90160910F0262956F706A304E
:100A500014F0695A01C0605D82EE91E00E94CF05FA
:100A600082EE91E063E040E60E94AB0581E0809376
:100A7000E8018093E90160910F026F706A3014F011
:100A8000695A01C0605D82EE91E00E94CF052BC0E3
:100A9000809101028F5F80930102833018F4C0E0DF
:100AA000D0E037CF82EE91E062E04EE40E94AB05E9
:100AB00011E01093E8011093E90182EE91E06AE9F8
:100AC00071E00E941F0782EE91E063E04AE50E9418
:100AD000AB051093E8011093E90182EE91E06AE919
:100AE00071E00E941F07DF91CF911F910895FF923F
:100AF0000F931F93F62E06E512E0C8016CE370E039
:100B00000E94E107C80160E40E946308C8016F2DDC
:100B10000E946308C8010E94A6081F910F91FF90D0
:100B20000895FF920F931F93F62E06E512E0C80179
:100B30006CE370E00E94E107C80160E00E94630876
:100B4000C8016F2D0E946308C8010E94A6081F916A
:100B50000F91FF9008950F931F93CF93DF93EC01B4
:100B6000142F062F683008F007E017FD1FE70D83EC
:100B70001C83612F6F70CE010E94910512951F702A
:100B80001061CE01612F0E949105006BCE01602F94
:100B90000E949105DF91CF911F910F9108952F929F
:100BA0003F924F925F926F927F928F929F92AF92FD
:100BB000BF92CF92DF92EF92FF920F931F93CF934A
:100BC000DF937C01DC0116968C91169714960C919C
:100BD0001497813071F5095F14960C93862F80521B
:100BE000803608F06FE7605285E0689F800111242D
:100BF00008591F4FC0E0D0E0F801EC0FFD1FE49151
:100C0000C7016E2F0E9477052196C530D105A1F747
:100C100010E009C0F70184818F5F8483C70160E021
:100C20000E9477051F5FD70117968C91181790F3D4
:100C3000AAC0F701358085E0689FC0011124E0E675
:100C40004E2EEFEF5E2E480E591ECC247CE0272E50
:100C500065E6662E6FEF762E680E791E81C0CC2D6C
:100C6000D0E0D70115968C91992787FD90958C0F30
:100C70009D1F803891050CF078C0CC2031F06C2D90
:100C8000630DC701402F0E94AB054E0153E0880C55
:100C9000991C5A95E1F7A82CA194E201FE01E859AC
:100CA000FF4FB490D7011696FC912F2F30E0C4016E
:100CB000B9010E940A1081E090E002C0880F991FDC
:100CC0006A95E2F7E82FC90143E0880F991F4A951A
:100CD000E1F7821B930B4A2D480FDD2421E01E2FE4
:100CE0001B2130E011C01111D22A220F4150842F54
:100CF00090E06F2F70E00E94F60F892B11F4EE0F39
:100D000005C0222329F03F5F3F1768F3222339F7FC
:100D1000B090B8002092B80086E592E06CE370E0F5
:100D20000E94E10786E592E060E40E94630810E01B
:100D300006C086E592E06D2D0E9463081F5FD70113
:100D400016968C911817A8F386E592E00E94A608E3
:100D5000B092B8002196C615D70509F09FCFC3946D
:100D6000F7012681C21608F47ACFD70117968C9125
:100D7000080F85E0289FC0011124080FC701632DCB
:100D8000402F0E94AB0581E090E0DF91CF911F9151
:100D90000F91FF90EF90DF90CF90BF90AF909F901A
:100DA0008F907F906F905F904F903F902F9008951D
:100DB0000F931F93CF93DF938C0161E20E94910503
:100DC000C80160E00E949105C8016FE70E9491058B
:100DD000C80162E20E949105C80160E00E9491058D
:100DE000C80167E00E9491051091B8008CE08093E3
:100DF000B800C0E0D0E086E592E06CE370E00E94CD
:100E0000E10786E592E060E40E94630800E086E581
:100E100092E060E00E9463080F5F0031C1F76096C6
:100E200086E592E00E94A60884E0C030D80719F752
:100E30001093B800DF91CF911F910F910895CF9239
:100E4000DF92EF92FF920F931F93CF93DF936C018A
:100E50007B01EB0109900020E9F72197C61BD70B16
:100E600000E010E00EC0D601ED91FC91D701A00F7B
:100E7000B11F0190F081E02DC6016C9109950F5FC3
:100E80001F4F0C171D0778F3CE01DF91CF911F91F3
:100E90000F91FF90EF90DF90CF9008950F931F93E5
:100EA0008C01FC011482158281E08683878383850F
:100EB00061E00E943C0C86E592E00E94AA08F801DD
:100EC000838561E00E947B0C61E070E080E090E04F
:100ED0000E94D40BF801838560E00E947B0C6AE0DD
:100EE00070E080E090E00E94D40BF801838561E01F
:100EF0000E947B0CC8016EEA0E949105C80165ED55
:100F00000E949105C80160E80E949105C80168EA45
:100F10000E949105C8016FE30E949105C80163ED2D
:100F20000E949105C80160E00E949105C80160E43B
:100F30000E949105C8016DE80E949105C80164E115
:100F40000E949105C80160E20E949105C80160E01D
:100F50000E949105C80161EA0E949105C80168ECF0
:100F60000E949105C8016AED0E949105C80162E1E5
:100F70000E949105C80161E80E949105C8016FECCB
:100F80000E949105C80169ED0E949105C80161EFB9
:100F90000E949105C8016BED0E949105C80160E4B3
:100FA0000E949105C80164EA0E949105C80166EAA1
:100FB0000E949105C8016FEA0E9491051F910F914F
:100FC000089581E08093550260933202109253029B
:100FD0001092540208952091310230E08091300245
:100FE000281B3109C90108954091300280913102D6
:100FF000481718F02FEF3FEF0AC0E42FF0E0E05F52
:10100000FD4F8081282F30E04F5F40933002C901AF
:101010000895E091300280913102E81718F0EFEF67
:10102000FFEF06C0F0E0E05FFD4F8081E82FF0E0C9
:10103000CF0108950895109259021092580288EE37
:1010400093E0A0E0B0E080935A0290935B02A093FB
:101050005C02B0935D0285EC91E09093570280931F
:1010600056020895CF92DF92EF92FF920F931F9353
:10107000CF93DF937C016B018A0180915502882315
:10108000A1F0C0E0D0E00DC0D701ED91FC91D601F8
:10109000AC0FBD1F0190F081E02DC7016C91099547
:1010A0002196C017D10780F304C0CB01642F0E94A2
:1010B0000A09C801DF91CF911F910F91FF90EF9026
:1010C000DF90CF900895DF93CF930F92CDB7DEB727
:1010D000FC016983809155028823C9F080915402F4
:1010E000803238F081E090E09383828320E030E02A
:1010F00015C080915302E82FF0E0ED5CFD4F99811F
:1011000090838F5F809353028093540205C0CE0179
:10111000019661E00E940A0921E030E0C9010F90C8
:10112000CF91DF9108950F93062F8091320263E3F0
:1011300072E04091540221E00E94B50810925302DF
:1011400010925402109255020F91089561E00E948E
:1011500093080895109230021092310210925302B7
:10116000109254020E94B60A08950F931F93582FAD
:10117000122F413210F081E04AC080916202882330
:10118000E1F782E080936202009364028FEF809324
:10119000CF0210928A0240938B02AAE6B2E0FB01D2
:1011A00002C081918D938E2F861B8417D0F31092ED
:1011B000630280916302550F852B809363028091B7
:1011C0006502813041F41092650280916302809340
:1011D000BB0085EC01C085EE8093BC00112321F09B
:1011E000809162028230E1F38091CF028F3F11F44F
:1011F00080E00DC08091CF02803211F482E007C000
:101200008091CF02803311F084E001C083E01F9110
:101210000F910895482F613210F081E00895809178
:101220006202843011F082E008956093AD02ACE870
:10123000B2E0842F9C01F90102C081918D938E2F21
:10124000841B8617D0F380E008951F920F920FB68B
:101250000F9211242F933F934F935F936F937F933C
:101260008F939F93AF93BF93EF93FF938091B900B8
:1012700090E0887F90708036910509F4F2C0813645
:101280009105CCF58832910509F47BC0893291052E
:10129000B4F48031910509F46FC0813191053CF4BB
:1012A000009709F447C1089709F04FC165C088311C
:1012B000910509F466C0809709F047C182C0803467
:1012C000910509F4A4C08134910544F4803391055B
:1012D00009F482C0C89709F038C189C080359105EA
:1012E00009F489C08835910509F496C088349105C0
:1012F00009F02BC1AEC08839910509F413C18939B1
:101300009105ECF48837910509F4ABC08937910554
:101310004CF48836910509F4A4C08037910509F092
:1013200014C19FC08838910509F4FCC0803991052B
:1013300009F49DC08038910509F007C198C0803B31
:10134000910509F4C6C0813B91054CF4803A9105A2
:1013500009F49FC0883A910509F0F7C0BAC0803CF3
:10136000910509F4E3C0883C910509F4DFC0883B8E
:10137000910509F0EAC0C2C0809163028093BB006E
:10138000CFC090918A0280918B02981768F4909157
:101390008A02E92FF0E0E659FD4F80818093BB007F
:1013A0009F5F90938A02BCC080916402882309F4F5
:1013B0004BC085ED8093BC008091BC0084FDFCCFC8
:1013C000C2C080E28093CF0285ED8093BC00809103
:1013D000BC0084FDFCCFB7C080E38093CF0285EDD5
:1013E0008093BC008091BC0084FDFCCFACC088E33E
:1013F0008093CF029BC080918A029091BB00E82F1E
:10140000F0E0E659FD4F90838F5F80938A029091C0
:101410008A0280918B0282C080918A029091BB00E7
:10142000E82FF0E0E659FD4F90838F5F80938A02AA
:1014300080916402882341F085ED8093BC00809107
:10144000BC0084FDFCCF7FC081E08093650284EA0C
:101450006EC085ED8093BC008091BC0084FDFCCF04
:1014600072C083E0809362021092CE0259C08091D4
:10147000CE02803208F056C08091CE029091BB001F
:10148000E82FF0E0E255FD4F90838F5F8093CE020E
:1014900047C08091CE02803230F4E091CE02F0E07D
:1014A000E255FD4F108285ED8093BC008091BC0019
:1014B00084FDFCCF109262026091CE02E09168023E
:1014C000F09169028EEA92E070E009951092CE02E6
:1014D0002DC084E0809362021092AC021092AD02A3
:1014E000E0916602F091670209958091AD02882330
:1014F00029F481E08093AD0210928C029091AC02AD
:10150000E92FF0E0E457FD4F80818093BB009F5F9F
:101510009093AC029091AC028091AD02981710F4B8
:1015200085EC01C085E88093BC000FC085EC8093FA
:10153000BC0009C01092CF0285ED8093BC00809161
:10154000BC0084FDFCCF10926202FF91EF91BF912D
:10155000AF919F918F917F916F915F914F913F914B
:101560002F910F900FBE0F901F901895109262024E
:1015700081E0809364021092650282E161E00E9442
:101580007B0C83E161E00E947B0CE9EBF0E0808161
:101590008E7F808380818D7F808388E48093B800F4
:1015A00085E48093BC000895823000F5E82FF0E0D8
:1015B000EE0FFF1FE053FD4F71836083882319F006
:1015C0008130A1F408C0809169008C7F842B8093C6
:1015D0006900E89A089580916900440F551F440FEF
:1015E000551F837F842B80936900E99A08951F9289
:1015F0000F920FB60F9211242F933F934F935F9347
:101600006F937F938F939F93AF93BF93EF93FF93CA
:101610008091D0029091D102892B29F0E091D002E3
:10162000F091D1020995FF91EF91BF91AF919F91F8
:101630008F917F916F915F914F913F912F910F907B
:101640000FBE0F901F9018951F920F920FB60F921A
:1016500011242F933F934F935F936F937F938F93B7
:101660009F93AF93BF93EF93FF938091D20290919A
:10167000D302892B29F0E091D202F091D30209958F
:10168000FF91EF91BF91AF919F918F917F916F915A
:101690005F914F913F912F910F900FBE0F901F9030
:1016A00018951F920F920FB60F9211242F933F930C
:1016B0008F939F93AF93BF938091D8029091D9025B
:1016C000A091DA02B091DB023091DC020196A11DFB
:1016D000B11D232F2D5F2D3720F02D570196A11D11
:1016E000B11D2093DC028093D8029093D902A0937D
:1016F000DA02B093DB028091D4029091D502A091DE
:10170000D602B091D7020196A11DB11D8093D402DB
:101710009093D502A093D602B093D702BF91AF9118
:101720009F918F913F912F910F900FBE0F901F901F
:101730001895789484B5826084BD84B5816084BD39
:1017400085B5826085BD85B5816085BDEEE6F0E03A
:10175000808181608083E1E8F0E010828081826096
:101760008083808181608083E0E8F0E08081816017
:101770008083E1EBF0E0808184608083E0EBF0E047
:10178000808181608083EAE7F0E0808184608083EB
:101790008081826080838081816080838081806895
:1017A00080831092C1000895EF92FF920F931F93D0
:1017B000CF93DF937B018C013FB7F8948091D402E3
:1017C0009091D502A091D602B091D70226B5A89BE0
:1017D00005C02F3F19F00196A11DB11D3FBFBA2FC3
:1017E000A92F982F8827820F911DA11DB11D52E0AE
:1017F000880F991FAA1FBB1F5A95D1F7EC0130C063
:101800000E94D60F3FB7F8948091D4029091D502F0
:10181000A091D602B091D70226B5A89B05C02F3F54
:1018200019F00196A11DB11D3FBFBA2FA92F982F06
:101830008827820F911DA11DB11D32E0880F991FCD
:10184000AA1FBB1F3A95D1F78C1B9D0B885E934056
:10185000B8F20894E108F10801091109C851DC4FF8
:10186000E114F1040105110559F6DF91CF911F91A3
:101870000F91FF90EF900895CF93DF93482F50E0A2
:10188000CA0186589D4FFC0134914A595D4FFA01B7
:101890008491882369F190E0880F991FFC01E85B2F
:1018A000FD4FA591B491FC01EE5AFD4FC591D49125
:1018B000662351F42FB7F8948C91932F9095892338
:1018C0008C93888189230BC0623061F42FB7F89420
:1018D0008C91932F909589238C938881832B888377
:1018E0002FBF06C09FB7F8948C91832B8C939FBF1A
:1018F000DF91CF910895482F50E0CA0182579D4F44
:10190000FC012491CA0186589D4FFC0194914A59CB
:101910005D4FFA013491332309F440C0222351F181
:10192000233071F0243028F42130A1F0223011F559
:1019300014C02630B1F02730C1F02430D9F404C0EF
:10194000809180008F7703C0809180008F7D80938D
:10195000800010C084B58F7702C084B58F7D84BDB0
:1019600009C08091B0008F7703C08091B0008F7D57
:101970008093B000E32FF0E0EE0FFF1FEE5AFD4F13
:10198000A591B4912FB7F894662321F48C9190958A
:10199000892302C08C91892B8C932FBF0895682FC7
:1019A00070E0CB0182579D4FFC012491CB018658FA
:1019B0009D4FFC0144916A597D4FFB0194919923FD
:1019C00019F420E030E03CC0222351F1233071F0C3
:1019D000243028F42130A1F0223011F514C0263033
:1019E000B1F02730C1F02430D9F404C080918000D8
:1019F0008F7703C0809180008F7D8093800010C01E
:101A000084B58F7702C084B58F7D84BD09C0809175
:101A1000B0008F7703C08091B0008F7D8093B000BD
:101A2000892F90E0880F991F845A9D4FFC01A59142
:101A3000B4918C9120E030E0842311F021E030E07B
:101A4000C901089508951F920F920FB60F921124A5
:101A50002F933F934F938F939F93EF93FF93809197
:101A6000C00082FD19C04091C6008091FB02282F62
:101A700030E02F5F3F4F2F7330708091FC0290E079
:101A80002817390759F0E091FB02F0E0E352FD4FCF
:101A900042A32093FB0202C08091C600FF91EF9108
:101AA0009F918F914F913F912F910F900FBE0F906B
:101AB0001F9018958091FB022091FC0290E0805CC1
:101AC0009F4F821B91098F739070892B11F00E9498
:101AD000220D08951F920F920FB60F9211242F938B
:101AE0008F939F93EF93FF939091FD028091FE025D
:101AF000981731F48091C1008F7D8093C10010C090
:101B0000E091FE02F0E0E15CFC4F20818091FE025A
:101B100090E001968F7390708093FE022093C60030
:101B2000FF91EF919F918F912F910F900FBE0F908A
:101B30001F901895AF92BF92DF92EF92FF920F9392
:101B40001F93CF93DF93EC017A018B01DD244030AA
:101B500081EE580780E0680780E0780711F0DD2407
:101B6000D39491E0A92EB12CE889F989DD2069F0A0
:101B7000C5010C8C02C0880F991F0A94E2F780837C
:101B800060E079E08DE390E005C0108260E874E8E1
:101B90008EE190E0A80197010E941D102150304075
:101BA00040405040569547953795279580E1203025
:101BB000380720F0DD2011F0DD24D6CFEC85FD853F
:101BC0003083EE85FF8520831D8EEA89FB89408165
:101BD00021E030E0C901088C02C0880F991F0A94E7
:101BE000E2F7482B4083EA89FB894081C901098CCF
:101BF00002C0880F991F0A94E2F7482B4083EA89B4
:101C0000FB894081C9010A8C02C0880F991F0A9480
:101C1000E2F7482B4083EA89FB8980810B8C02C064
:101C2000220F331F0A94E2F7209528232083DF91A7
:101C3000CF911F910F91FF90EF90DF90BF90AF90E9
:101C40000895FC01268D878D30E0205C3F4F281BD6
:101C500031092F733070C9010895FC01968D878D6D
:101C6000981719F42FEF3FEF06C0878DE80FF11D8D
:101C700082A1282F30E0C9010895DC015E969C9175
:101C80005E975F968C915F97981719F42FEF3FEF4F
:101C900010C05F968C915F97FD01E80FF11D92A136
:101CA0005F968C915F978F5F8F735F968C93292FD0
:101CB00030E0C9010895DC015D968C915D97882321
:101CC00039F05096ED91FC915197808186FFF9CFC4
:101CD0005D961C920895DC0190968C919097282F28
:101CE00030E02F5F3F4F2F73307091968C9191971A
:101CF00090E028173907C9F390968C919097FD01D1
:101D0000E80FF11DEE59FF4F608390962C9390974A
:101D10005296ED91FC915397208181E090E05B9683
:101D20000C905B9702C0880F991F0A94E2F7282B4A
:101D3000208381E05D968C935D975096ED91FC91A8
:101D4000519780818064808381E090E008951092B3
:101D5000E0021092DF0288EE93E0A0E0B0E0809312
:101D6000E1029093E202A093E302B093E40285EDD6
:101D700091E09093DE028093DD021092FE0280914A
:101D8000FE028093FD021092FC028091FC0280937F
:101D9000FB0285EC90E09093EA028093E90284ECE8
:101DA00090E09093EC028093EB0280EC90E09093B3
:101DB000EE028093ED0281EC90E09093F00280932C
:101DC000EF0282EC90E09093F2028093F10286ECB5
:101DD00090E09093F4028093F30284E08093F50204
:101DE00083E08093F60287E08093F70285E080939A
:101DF000F80281E08093F9020895CF93DF930E9467
:101E0000990B0E947303CAE5DDE00E948C012097C4
:101E1000E1F30E945A0DF9CFCF92DF92EF92FF9239
:101E20000F931F93CF93DF937C016B018A01C0E076
:101E3000D0E00FC0D6016D916D01D701ED91FC91FD
:101E40000190F081E02DC7010995C80FD91F0150FD
:101E500010400115110571F7CE01DF91CF911F914F
:101E60000F91FF90EF90DF90CF900895CF93DF9385
:101E7000EC016115710519F420E030E00FC0DB01C1
:101E80000D900020E9F71197A61BB70BE881F981A7
:101E90000280F381E02DAD0109959C01C901DF911C
:101EA000CF9108954F925F927F928F929F92AF92BF
:101EB000BF92CF92DF92EF92FF920F931F93DF9327
:101EC000CF93CDB7DEB7A1970FB6F894DEBF0FBEA4
:101ED000CDBF2C01742ECB01223008F42AE019A2C8
:101EE00031E2C32ED12CCC0EDD1E822E9924AA24E1
:101EF000BB24672D752FA50194010E941D10790147
:101F00008A01C801B701A50194010E94D70F472D8E
:101F1000461B0894C108D1084A3014F4405D01C042
:101F2000495CF6014083E114F1040105110521F03B
:101F30007E2C5F2DC801DDCFC201B6010E94360F95
:101F4000A1960FB6F894DEBF0FBECDBFCF91DF9143
:101F50001F910F91FF90EF90DF90CF90BF90AF90C7
:101F60009F908F907F905F904F900895DC01211596
:101F7000310541F4ED91FC910190F081E02D642F49
:101F8000099508950E94520F0895EF92FF920F93C2
:101F90001F939A017B0100E010E0B801A7010E94A5
:101FA000B60F1F910F91FF90EF9008950895629FD3
:101FB000D001739FF001829FE00DF11D649FE00D41
:101FC000F11D929FF00D839FF00D749FF00D659FA2
:101FD000F00D9927729FB00DE11DF91F639FB00DA1
:101FE000E11DF91FBD01CF0111240895AA1BBB1BE0
:101FF00051E107C0AA1FBB1FA617B70710F0A61B09
:10200000B70B881F991F5A95A9F780959095BC0129
:10201000CD01089597FB092E07260AD077FD04D03D
:10202000E5DF06D000201AF4709561957F4F089582
:10203000F6F7909581959F4F0895A1E21A2EAA1B5D
:10204000BB1BFD010DC0AA1FBB1FEE1FFF1FA21768
:10205000B307E407F50720F0A21BB30BE40BF50B65
:10206000661F771F881F991F1A9469F760957095EE
:10207000809590959B01AC01BD01CF010895EE0FB5
:0E208000FF1F0590F491E02D0994F894FFCF16
:10208E0020494E3A002020202020202020202020F1
:10209E002020202020002020202020202020202052
:1020AE002020202020002020202020202020202042
:1020BE002020202000202020202020202020202032
:1020CE002020004F55543A0057534E2D4C20563277
:1020DE002E30002D2D2D2D2D2D2D2D2D2D2D2D2D4B
:1020EE002D2D2D2D2D2D2D2D2D2D2D2D005A69679C
:1020FE006265652050616E69643A005A696762656F
:10210E0065204368616E6E656C3A0057534E2044ED
:10211E006576204164643A0020006572726F720029
:10212E00701F07000400100001AAAA5555A5A5C3EB
:10213E00B50000FFFFFFFFFF5B00000000CF050CA6
:10214E000F0000000063083208EB07F40709081AB5
:10215E0008000000006B0E0C0F210E3D0E2D0E5BC5
:02216E000E0061
:00000001FF
