:100000000C9454010C947C010C947C010C947C01A4
:100010000C947C010C947C010C947C010C947C016C
:100020000C947C010C947C010C947C010C947C015C
:100030000C947C010C947C010C947C010C947C014C
:100040000C94380A0C947C010C94D90B0C94200C61
:100050000C947C010C947C010C947C010C947C012C
:100060000C9489080C947C01000000000000005FE3
:1000700000000007000700147F147F14242A7F2A41
:100080001223130864623649562050000807030003
:10009000001C2241000041221C002A1C7F1C2A084F
:1000A000083E0808008070300008080808080000B2
:1000B00060600020100804023E5149453E00427F26
:1000C000400072494949462141494D331814127F75
:1000D0001027454545393C4A494931412111090715
:1000E0003649494936464949291E00001400000096
:1000F0004034000000081422411414141414004168
:1001000022140802015909063E415D594E7C121124
:10011000127C7F494949363E414141227F4141415C
:100120003E7F494949417F090909013E41415173D7
:100130007F0808087F00417F41002040413F017F48
:10014000081422417F404040407F021C027F7F0410
:1001500008107F3E4141413E7F090909063E415159
:10016000215E7F09192946264949493203017F0149
:10017000033F4040403F1F2040201F3F4038403F4A
:10018000631408146303047804036159494D430060
:100190007F4141410204081020004141417F040297
:1001A000010204404040404000030708002054542E
:1001B00078407F284444383844444428384444280C
:1001C0007F385454541800087E090218A4A49C785F
:1001D0007F0804047800447D40002040403D007FBB
:1001E0001028440000417F40007C047804787C089B
:1001F0000404783844444438FC182424181824246F
:1002000018FC7C08040408485454542404043F4453
:10021000243C4040207C1C2040201C3C4030403C82
:1002200044281028444C9090907C4464544C4400E2
:100230000836410000007700000041360800020146
:100240000204023C2623263C000000002400270074
:100250002A0000000000250028002B0000000000FC
:1002600023002600290004040404040404040202F8
:100270000202020203030303030301020408102025
:100280004080010204081020010204081020000030
:100290000007000201000003040600000000000047
:1002A00000007E017F075D0D11241FBECFEFD8E057
:1002B000DEBFCDBF11E0A0E0B1E0EAEFFDE102C09A
:1002C00005900D92AC3CB107D9F713E0ACECB1E06E
:1002D00001C01D92A436B107E1F712E0C8EAD2E0EE
:1002E00004C02297FE010E94F70EC23AD107C9F757
:1002F0000E94B30D0C94FB0E0C9400001092CF01E1
:100300001092CE0188EA91E09093CD018093CC01C8
:1003100085E08093D70108951F93CF93DF93809159
:10032000E50191E089278093E501882321F48091FC
:100330008D0160E003C080918D0161E00E94840B1B
:10034000809191010E94230B64E070E00E94C00E36
:100350007093E7016093E60180918F010E94230B67
:1003600062E070E00E94C00E7093E9016093E801C2
:100370008CEC91E065E040E00E940F0511E01093E5
:10038000D2011093D3018CEC91E060E071E00E9407
:1003900083068091E6019091E7018A30910578F417
:1003A0008CEC91E065E048E40E940F051093D201C7
:1003B0001093D3018CEC91E06CE071E023C08436A3
:1003C000910578F48CEC91E065E04EE40E940F0515
:1003D0001093D2011093D3018CEC91E066E171E0AF
:1003E00011C0885E934080F48CEC91E065E044E5B8
:1003F0000E940F051093D2011093D3018CEC91E071
:100400006FE171E00E9483068CEC91E065E042E4CC
:100410000E940F0511E01093D2011093D301609157
:10042000E6017091E7018CEC91E04AE050E00E9417
:100430007B0E8CEC91E066E040E00E940F0510938B
:10044000D2011093D3018CEC91E067E271E00E943D
:1004500083068091E8019091E9018A30910578F452
:100460008CEC91E066E048E40E940F051093D20105
:100470001093D3018CEC91E06CE071E023C08436E2
:10048000910578F48CEC91E066E04EE40E940F0553
:100490001093D2011093D3018CEC91E066E171E0EE
:1004A00011C0885E934080F48CEC91E066E044E5F6
:1004B0000E940F051093D2011093D3018CEC91E0B0
:1004C0006FE171E00E9483068CEC91E066E042E40B
:1004D0000E940F0511E01093D2011093D301609197
:1004E000E8017091E9018CEC91E04AE050E00E9453
:1004F0007B0E2091E8013091E9018091E601909115
:10050000E7018217930770F410939D01CAE9D1E0C7
:1005100082EC92E069910E94210D81E0C33AD807F4
:10052000B9F713C08FEF80939D010FC082EC92E06A
:100530000E94F30C899321E0C43FD207B9F763E02E
:1005400070E080E090E00E94BB0A82EC92E00E94A2
:10055000D70C181619061CF4CBEED1E0E7CF68EEE5
:1005600073E080E090E00E94BB0A8091EB01853A45
:10057000C1F58091F3018A35A1F52091EC018091BC
:100580008B01281731F49091ED0180918C0198171F
:1005900031F0222331F58091ED01882311F580910E
:1005A000EE018F3FF1F48091EF018F3FD1F4809104
:1005B000F0018F3FB1F48091F1018F3F91F4809170
:1005C000F2018F3F71F4CAE9D1E082EC92E06991C7
:1005D0000E94210D81E0C33AD807B9F78FEF8093CD
:1005E000EB01DF91CF911F9108951F93CF93DF937C
:1005F00068EE73E080E090E00E94BB0A82EC92E03B
:1006000040E855E260E070E00E94500C80918F015C
:1006100060E00E94450B8091910160E00E94450BD3
:1006200080918D0161E00E94450B80918B01809348
:100630009B0180918C0180939C018CEC91E00E9445
:10064000B2068CEC91E00E943C068CEC91E060E0FC
:1006500044E20E940F0511E01093D2011093D301E0
:100660008CEC91E063E371E00E9483068CEC91E0F6
:1006700061E041E00E940F051093D2011092D30176
:100680008CEC91E06EE371E00E9483068CEC91E0CB
:1006900062E040E00E940F051093D2011093D30155
:1006A0008CEC91E068E571E00E9483068CEC91E0AF
:1006B00063E040E00E940F051093D2011093D30134
:1006C0008CEC91E066E671E00E9483068CEC91E090
:1006D00064E040E00E940F051093D2011093D30113
:1006E0008CEC91E066E771E00E9483068CEC91E06F
:1006F00064E048E40E940F051093D2011093D301E7
:1007000060918B0162956F706A3014F0695A01C074
:10071000605D8CEC91E00E9433058CEC91E064E02C
:100720004EE40E940F0581E08093D2018093D301B3
:1007300060918B016F706A3014F0695A01C0605D7E
:100740008CEC91E00E9433058CEC91E064E044E590
:100750000E940F0511E01093D2011093D3018CEC8D
:1007600091E063E871E00E9483068CEC91E064E024
:100770004AE50E940F051093D2011093D3016091B6
:100780008C0162956F706A3014F0695A01C0605D27
:100790008CEC91E00E9433058CEC91E064E040E643
:1007A0000E940F0581E08093D2018093D301609174
:1007B0008C016F706A3014F0695A01C0605D8CEC76
:1007C00091E00E943305CFC0FE01ED56FE4F82EC52
:1007D00092E060810E94210D2196C730D105A4F3DB
:1007E00068EE73E080E090E00DC082EC92E00E9441
:1007F000F30C899381E0C93FD807B9F763E070E053
:1008000080E090E00E94BB0A82EC92E00E94D70C4C
:10081000181619061CF4C4EFD1E0E7CF68EE73E0B8
:1008200080E090E00E94BB0A8091F4018A3A09F0CE
:1008300093C08091F501833C09F08EC08CEC91E06F
:1008400062E04EE40E940F0581E08093D201809324
:10085000D3016091F70162956F706A3014F0695AA4
:1008600001C0605D8CEC91E00E9433058CEC91E05E
:1008700062E044E50E940F0581E08093D2018093FD
:10088000D3016091F7016F706A3014F0695A01C0AA
:10089000605D8CEC91E00E9433058CEC91E062E0AD
:1008A0004AE50E940F0581E08093D2018093D30135
:1008B0006091F60162956F706A3014F0695A01C058
:1008C000605D8CEC91E00E9433058CEC91E062E07D
:1008D00040E60E940F0581E08093D2018093D3010E
:1008E0006091F6016F706A3014F0695A01C0605D62
:1008F0008CEC91E00E9433058CEC91E063E04AE5DA
:100900000E940F0581E08093D2018093D301609112
:10091000F80162956F706A3014F0695A01C0605D29
:100920008CEC91E00E9433058CEC91E063E040E6B2
:100930000E940F0581E08093D2018093D3016091E2
:10094000F8016F706A3014F0695A01C0605D8CEC78
:1009500091E00E9433052BC08091EA018F5F809364
:10096000EA01833018F4C0E0D0E037CF8CEC91E09E
:1009700062E04EE40E940F0511E01093D201109343
:10098000D3018CEC91E065E871E00E9483068CEC69
:1009900091E063E04AE50E940F051093D2011093A5
:1009A000D3018CEC91E065E871E00E948306DF9151
:1009B000CF911F910895FF920F931F93F62E0FE38F
:1009C00012E0C8016CE370E00E944507C80160E4D2
:1009D0000E94C707C8016F2D0E94C707C8010E9467
:1009E0000A081F910F91FF900895FF920F931F9394
:1009F000F62E0FE312E0C8016CE370E00E94450799
:100A0000C80160E00E94C707C8016F2D0E94C70798
:100A1000C8010E940A081F910F91FF9008950F933B
:100A20001F93CF93DF93EC01142F062F683008F04B
:100A300007E017FD1FE70D831C83612F6F70CE0148
:100A40000E94F50412951F701061CE01612F0E9463
:100A5000F504006BCE01602F0E94F504DF91CF9169
:100A60001F910F9108952F923F924F925F926F9234
:100A70007F928F929F92AF92BF92CF92DF92EF922E
:100A8000FF920F931F93CF93DF937C01DC011696A7
:100A90008C91169714960C911497813071F5095F1B
:100AA00014960C93862F8052803608F06FE76052C0
:100AB00085E0689F8001112408591F4FC0E0D0E0F5
:100AC000F801EC0FFD1FE491C7016E2F0E94DB04BB
:100AD0002196C530D105A1F710E009C0F701848146
:100AE0008F5F8483C70160E00E94DB041F5FD70132
:100AF00017968C91181790F3AAC0F701358085E0FE
:100B0000689FC0011124E0E64E2EEFEF5E2E480EE6
:100B1000591ECC247CE0272E65E6662E6FEF762EDC
:100B2000680E791E81C0CC2DD0E0D70115968C912E
:100B3000992787FD90958C0F9D1F803891050CF0AB
:100B400078C0CC2031F06C2D630DC701402F0E947E
:100B50000F054E0153E0880C991C5A95E1F7A82C1B
:100B6000A194E201FE01E859FF4FB490D701169617
:100B7000FC912F2F30E0C401B9010E94C00E81E02A
:100B800090E002C0880F991F6A95E2F7E82FC9012B
:100B900043E0880F991F4A95E1F7821B930B4A2D7A
:100BA000480FDD2421E01E2F1B2130E011C0111160
:100BB000D22A220F4150842F90E06F2F70E00E94C4
:100BC000AC0E892B11F4EE0F05C0222329F03F5FF4
:100BD0003F1768F3222339F7B090B8002092B8008D
:100BE0008FE392E06CE370E00E9445078FE392E0B0
:100BF00060E40E94C70710E006C08FE392E06D2D0D
:100C00000E94C7071F5FD70116968C911817A8F38B
:100C10008FE392E00E940A08B092B8002196C615B0
:100C2000D70509F09FCFC394F7012681C21608F4B7
:100C30007ACFD70117968C91080F85E0289FC001C5
:100C40001124080FC701632D402F0E940F0581E07A
:100C500090E0DF91CF911F910F91FF90EF90DF9087
:100C6000CF90BF90AF909F908F907F906F905F904C
:100C70004F903F902F9008950F931F93CF93DF9342
:100C80008C0161E20E94F504C80160E00E94F50455
:100C9000C8016FE70E94F504C80162E20E94F504F2
:100CA000C80160E00E94F504C80167E00E94F504F5
:100CB0001091B8008CE08093B800C0E0D0E08FE3E2
:100CC00092E06CE370E00E9445078FE392E060E4FD
:100CD0000E94C70700E08FE392E060E00E94C70730
:100CE0000F5F0031C1F760968FE392E00E940A081F
:100CF00084E0C030D80719F71093B800DF91CF9186
:100D00001F910F910895CF92DF92EF92FF920F9370
:100D10001F93CF93DF936C017B01EB0109900020BF
:100D2000E9F72197C61BD70B00E010E00EC0D601F3
:100D3000ED91FC91D701A00FB11F0190F081E02D42
:100D4000C6016C9109950F5F1F4F0C171D0778F3B3
:100D5000CE01DF91CF911F910F91FF90EF90DF9027
:100D6000CF9008950F931F938C01FC01148215827C
:100D700081E086838783838561E00E94450B8FE352
:100D800092E00E940E08F801838561E00E94840BC6
:100D900061E070E080E090E00E94BB0AF80183858A
:100DA00060E00E94840B6AE070E080E090E00E94C6
:100DB000BB0AF801838561E00E94840BC8016EEADA
:100DC0000E94F504C80165ED0E94F504C80160E8C1
:100DD0000E94F504C80168EA0E94F504C8016FE3A7
:100DE0000E94F504C80163ED0E94F504C80160E0AB
:100DF0000E94F504C80160E40E94F504C8016DE892
:100E00000E94F504C80164E10E94F504C80160E293
:100E10000E94F504C80160E00E94F504C80161EA7F
:100E20000E94F504C80168EC0E94F504C8016AED4F
:100E30000E94F504C80162E10E94F504C80161E85E
:100E40000E94F504C8016FEC0E94F504C80169ED29
:100E50000E94F504C80161EF0E94F504C8016BED22
:100E60000E94F504C80160E40E94F504C80164EA28
:100E70000E94F504C80166EA0E94F504C8016FEA01
:100E80000E94F5041F910F91089581E080933E0226
:100E900060931B0210923C0210923D020895209133
:100EA0001A0230E080911902281B3109C901089506
:100EB0004091190280911A02481718F02FEF3FEF66
:100EC0000AC0E42FF0E0E750FE4F8081282F30E089
:100ED0004F5F40931902C9010895E0911902809172
:100EE0001A02E81718F0EFEFFFEF06C0F0E0E75046
:100EF000FE4F8081E82FF0E0CF0108950895109211
:100F000042021092410288EE93E0A0E0B0E08093AC
:100F1000430290934402A0934502B093460280EBB3
:100F200091E09093400280933F020895CF92DF9228
:100F3000EF92FF920F931F93CF93DF937C016B018E
:100F40008A0180913E028823A1F0C0E0D0E00DC06C
:100F5000D701ED91FC91D601AC0FBD1F0190F0813E
:100F6000E02DC7016C9109952196C017D10780F338
:100F700004C0CB01642F0E946E08C801DF91CF919D
:100F80001F910F91FF90EF90DF90CF900895DF9326
:100F9000CF930F92CDB7DEB7FC01698380913E02FB
:100FA0008823C9F080913D02803238F081E090E0E2
:100FB0009383828320E030E015C080913C02E82FCB
:100FC000F0E0E45EFD4F998190838F5F80933C0257
:100FD00080933D0205C0CE01019661E00E946E083B
:100FE00021E030E0C9010F90CF91DF9108950F9378
:100FF000062F80911B026CE172E040913D0221E0DE
:101000000E94190810923C0210923D0210923E027A
:101010000F91089561E00E94F70708951092190258
:1010200010921A0210923C0210923D020E941A0A7B
:1010300008950F931F93582F122F413210F081E023
:101040004AC080914B028823E1F782E080934B02F3
:1010500000934D028FEF8093B80210927302409379
:101060007402A3E5B2E0FB0102C081918D938E2F43
:10107000861B8417D0F310924C0280914C02550FBE
:10108000852B80934C0280914E02813041F4109266
:101090004E0280914C028093BB0085EC01C085EE2E
:1010A0008093BC00112321F080914B028230E1F348
:1010B0008091B8028F3F11F480E00DC08091B8029A
:1010C000803211F482E007C08091B802803311F0C1
:1010D00084E001C083E01F910F910895482F613291
:1010E00010F081E0089580914B02843011F082E08D
:1010F000089560939602A5E7B2E0842F9C01F90160
:1011000002C081918D938E2F841B8617D0F380E0CF
:1011100008951F920F920FB60F9211242F933F93B1
:101120004F935F936F937F938F939F93AF93BF93EF
:10113000EF93FF938091B90090E0887F90708036A4
:10114000910509F4F2C081369105CCF588329105FC
:1011500009F47BC089329105B4F48031910509F41A
:101160006FC0813191053CF4009709F447C108979D
:1011700009F04FC165C08831910509F466C08097B8
:1011800009F047C182C08034910509F4A4C08134BC
:10119000910544F48033910509F482C0C89709F0A1
:1011A00038C189C08035910509F489C08835910519
:1011B00009F496C08834910509F02BC1AEC0883976
:1011C000910509F413C189399105ECF4883791052B
:1011D00009F4ABC0893791054CF48836910509F4C0
:1011E000A4C08037910509F014C19FC088389105CB
:1011F00009F4FCC08039910509F49DC0803891053F
:1012000009F007C198C0803B910509F4C6C0813B35
:1012100091054CF4803A910509F49FC0883A9105F4
:1012200009F0F7C0BAC0803C910509F4E3C0883CDE
:10123000910509F4DFC0883B910509F0EAC0C2C0FE
:1012400080914C028093BB00CFC09091730280913B
:101250007402981768F490917302E92FF0E0ED5A48
:10126000FD4F80818093BB009F5F90937302BCC051
:1012700080914D02882309F44BC085ED8093BC001A
:101280008091BC0084FDFCCFC2C080E28093B80294
:1012900085ED8093BC008091BC0084FDFCCFB7C07D
:1012A00080E38093B80285ED8093BC008091BC0000
:1012B00084FDFCCFACC088E38093B8029BC08091D2
:1012C00073029091BB00E82FF0E0ED5AFD4F908340
:1012D0008F5F80937302909173028091740282C039
:1012E000809173029091BB00E82FF0E0ED5AFD4F22
:1012F00090838F5F8093730280914D02882341F029
:1013000085ED8093BC008091BC0084FDFCCF7FC044
:1013100081E080934E0284EA6EC085ED8093BC002C
:101320008091BC0084FDFCCF72C083E080934B02AF
:101330001092B70259C08091B702803208F056C0AF
:101340008091B7029091BB00E82FF0E0E956FD4F85
:1013500090838F5F8093B70247C08091B70280323D
:1013600030F4E091B702F0E0E956FD4F108285EDD0
:101370008093BC008091BC0084FDFCCF10924B0296
:101380006091B702E0915102F091520287E992E038
:1013900070E009951092B7022DC084E080934B0253
:1013A0001092950210929602E0914F02F091500235
:1013B000099580919602882329F481E08093960212
:1013C0001092750290919502E92FF0E0EB58FD4FD5
:1013D00080818093BB009F5F9093950290919502CE
:1013E00080919602981710F485EC01C085E88093EF
:1013F000BC000FC085EC8093BC0009C01092B802FD
:1014000085ED8093BC008091BC0084FDFCCF1092E0
:101410004B02FF91EF91BF91AF919F918F917F917F
:101420006F915F914F913F912F910F900FBE0F9051
:101430001F90189510924B0281E080934D021092FC
:101440004E0282E161E00E94840B83E161E00E9430
:10145000840BE9EBF0E080818E7F808380818D7F3B
:10146000808388E48093B80085E48093BC0008956D
:101470001F920F920FB60F9211242F933F938F93C9
:101480009F93AF93BF938091BD029091BE02A091B4
:10149000BF02B091C0023091C1020196A11DB11DE1
:1014A000232F2D5F2D3720F02D570196A11DB11D43
:1014B0002093C1028093BD029093BE02A093BF020D
:1014C000B093C0028091B9029091BA02A091BB0280
:1014D000B091BC020196A11DB11D8093B9029093F9
:1014E000BA02A093BB02B093BC02BF91AF919F918F
:1014F0008F913F912F910F900FBE0F901F901895D5
:10150000789484B5826084BD84B5816084BD85B5DE
:10151000826085BD85B5816085BDEEE6F0E08081A5
:1015200081608083E1E8F0E01082808182608083C6
:10153000808181608083E0E8F0E080818160808349
:10154000E1EBF0E0808184608083E0EBF0E080817B
:1015500081608083EAE7F0E080818460808380811D
:1015600082608083808181608083808180688083C5
:101570001092C1000895EF92FF920F931F93CF93A3
:10158000DF937B018C013FB7F8948091B902909171
:10159000BA02A091BB02B091BC0226B5A89B05C0BF
:1015A0002F3F19F00196A11DB11D3FBFBA2FA92FE2
:1015B000982F8827820F911DA11DB11D52E0880F21
:1015C000991FAA1FBB1F5A95D1F7EC0130C00E948A
:1015D0008C0E3FB7F8948091B9029091BA02A09115
:1015E000BB02B091BC0226B5A89B05C02F3F19F0E5
:1015F0000196A11DB11D3FBFBA2FA92F982F882793
:10160000820F911DA11DB11D32E0880F991FAA1FE5
:10161000BB1F3A95D1F78C1B9D0B885E9340B8F2A7
:101620000894E108F10801091109C851DC4FE114DF
:10163000F1040105110559F6DF91CF911F910F912A
:10164000FF90EF900895982F8E3008F09E5097707D
:101650008091A3018295880F880F807C892B8093CD
:101660007C0080917A00806480937A0080917A0077
:1016700086FDFCCF2091780040917900942F80E086
:1016800030E0282B392BC9010895CF93DF93482FE1
:1016900050E0CA0186589D4FFC0134914A595D4F74
:1016A000FA018491882369F190E0880F991FFC0169
:1016B000E85BFD4FA591B491FC01EE5AFD4FC59139
:1016C000D491662351F42FB7F8948C91932F909571
:1016D00089238C93888189230BC0623061F42FB7F2
:1016E000F8948C91932F909589238C938881832BE8
:1016F00088832FBF06C09FB7F8948C91832B8C935F
:101700009FBFDF91CF910895482F50E0CA018257C3
:101710009D4FFC012491CA0186589D4FFC01949174
:101720004A595D4FFA013491332309F440C0222312
:1017300051F1233071F0243028F42130A1F022300F
:1017400011F514C02630B1F02730C1F02430D9F49F
:1017500004C0809180008F7703C0809180008F7DCE
:101760008093800010C084B58F7702C084B58F7DD0
:1017700084BD09C08091B0008F7703C08091B00014
:101780008F7D8093B000E32FF0E0EE0FFF1FEE5A45
:10179000FD4FA591B4912FB7F894662321F48C9155
:1017A0009095892302C08C91892B8C932FBF08952B
:1017B00008951F920F920FB60F9211242F933F930B
:1017C0004F938F939F93EF93FF938091C00082FD7F
:1017D00019C04091C6008091E002282F30E02F5FB1
:1017E0003F4F2F7330708091E10290E02817390746
:1017F00059F0E091E002F0E0EE53FD4F42A3209358
:10180000E00202C08091C600FF91EF919F918F91FD
:101810004F913F912F910F900FBE0F901F901895F1
:101820008091E0022091E10290E0805C9F4F821B5A
:1018300091098F739070892B11F00E94D80B089535
:101840001F920F920FB60F9211242F938F939F9395
:10185000EF93FF939091E2028091E302981731F4A5
:101860008091C1008F7D8093C10010C0E091E302A0
:10187000F0E0EC5DFC4F20818091E30290E0019666
:101880008F7390708093E3022093C600FF91EF91D5
:101890009F918F912F910F900FBE0F901F901895D1
:1018A000AF92BF92DF92EF92FF920F931F93CF936D
:1018B000DF93EC017A018B01DD24403081EE580783
:1018C00080E0680780E0780711F0DD24D39491E090
:1018D000A92EB12CE889F989DD2069F0C5010C8CAD
:1018E00002C0880F991F0A94E2F7808360E079E0D4
:1018F0008DE390E005C0108260E874E88EE190E02E
:10190000A80197010E94D30E215030404040504022
:10191000569547953795279580E12030380720F078
:10192000DD2011F0DD24D6CFEC85FD853083EE85FA
:10193000FF8520831D8EEA89FB89408121E030E00C
:10194000C901088C02C0880F991F0A94E2F7482B3E
:101950004083EA89FB894081C901098C02C0880F54
:10196000991F0A94E2F7482B4083EA89FB8940815A
:10197000C9010A8C02C0880F991F0A94E2F7482B0C
:101980004083EA89FB8980810B8C02C0220F331FC0
:101990000A94E2F7209528232083DF91CF911F91AD
:1019A0000F91FF90EF90DF90BF90AF900895FC01F2
:1019B000268D878D30E0205C3F4F281B31092F7327
:1019C0003070C9010895FC01968D878D981719F420
:1019D0002FEF3FEF06C0878DE80FF11D82A1282F62
:1019E00030E0C9010895DC015E969C915E975F9698
:1019F0008C915F97981719F42FEF3FEF10C05F9607
:101A00008C915F97FD01E80FF11D92A15F968C917B
:101A10005F978F5F8F735F968C93292F30E0C9019A
:101A20000895DC015D968C915D97882339F050967E
:101A3000ED91FC915197808186FFF9CF5D961C92C4
:101A40000895DC0190968C919097282F30E02F5FBD
:101A50003F4F2F73307091968C91919790E028179B
:101A60003907C9F390968C919097FD01E80FF11D0D
:101A7000EE59FF4F608390962C9390975296ED917C
:101A8000FC915397208181E090E05B960C905B97EE
:101A900002C0880F991F0A94E2F7282B208381E067
:101AA0005D968C935D975096ED91FC915197808156
:101AB0008064808381E090E008951092C5021092C6
:101AC000C40288EE93E0A0E0B0E08093C602909359
:101AD000C702A093C802B093C90280EC91E0909332
:101AE000C3028093C2021092E3028091E3028093CA
:101AF000E2021092E1028091E1028093E00285EC23
:101B000090E09093CF028093CE0284EC90E090938B
:101B1000D1028093D00280EC90E09093D302809326
:101B2000D20281EC90E09093D5028093D40282ECB3
:101B300090E09093D7028093D60286EC90E0909349
:101B4000D9028093D80284E08093DA0283E0809304
:101B5000DB0287E08093DC0285E08093DD0281E098
:101B60008093DE020895CF93DF930E94800A0E9443
:101B7000F502C0E1DCE00E948C012097E1F30E94B5
:101B8000100CF9CFCF92DF92EF92FF920F931F9339
:101B9000CF93DF937C016B018A01C0E0D0E00FC0DE
:101BA000D6016D916D01D701ED91FC910190F0810D
:101BB000E02DC7010995C80FD91F0150104001152C
:101BC000110571F7CE01DF91CF911F910F91FF9019
:101BD000EF90DF90CF900895CF93DF93EC016115E4
:101BE000710519F420E030E00FC0DB010D900020FA
:101BF000E9F71197A61BB70BE881F9810280F38101
:101C0000E02DAD0109959C01C901DF91CF910895A7
:101C10004F925F927F928F929F92AF92BF92CF929C
:101C2000DF92EF92FF920F931F93DF93CF93CDB785
:101C3000DEB7A1970FB6F894DEBF0FBECDBF2C0163
:101C4000742ECB01223008F42AE019A231E2C32E0F
:101C5000D12CCC0EDD1E822E9924AA24BB24672D04
:101C6000752FA50194010E94D30E79018A01C80144
:101C7000B701A50194010E948D0E472D461B0894C3
:101C8000C108D1084A3014F4405D01C0495CF60136
:101C90004083E114F1040105110521F07E2C5F2D34
:101CA000C801DDCFC201B6010E94EC0DA1960FB6AE
:101CB000F894DEBF0FBECDBFCF91DF911F910F9182
:101CC000FF90EF90DF90CF90BF90AF909F908F905C
:101CD0007F905F904F900895DC012115310541F40C
:101CE000ED91FC910190F081E02D642F099508950C
:101CF0000E94080E0895EF92FF920F931F939A018E
:101D00007B0100E010E0B801A7010E946C0E1F915A
:101D10000F91FF90EF9008950895629FD001739FF7
:101D2000F001829FE00DF11D649FE00DF11D929F77
:101D3000F00D839FF00D749FF00D659FF00D9927B6
:101D4000729FB00DE11DF91F639FB00DE11DF91FDA
:101D5000BD01CF0111240895AA1BBB1B51E107C08F
:101D6000AA1FBB1FA617B70710F0A61BB70B881F2B
:101D7000991F5A95A9F780959095BC01CD010895BA
:101D800097FB092E07260AD077FD04D0E5DF06D0A1
:101D900000201AF4709561957F4F0895F6F790959D
:101DA00081959F4F0895A1E21A2EAA1BBB1BFD012E
:101DB0000DC0AA1FBB1FEE1FFF1FA217B307E4072A
:101DC000F50720F0A21BB30BE40BF50B661F771F82
:101DD000881F991F1A9469F7609570958095909562
:101DE0009B01AC01BD01CF010895EE0FFF1F0590CF
:0A1DF000F491E02D0994F894FFCF60
:101DFA00416C61726D56616C75653A002020202035
:101E0A002020202020002020202020202020002008
:101E1A00202020202020004D5132202056616C7550
:101E2A00653A0057534E2D532056322E30002D2D31
:101E3A002D2D2D2D2D2D2D2D2D2D2D2D2D2D2D2DC8
:101E4A002D2D2D2D2D2D2D005A6967626565205087
:101E5A00616E69643A005A69676265652043686120
:101E6A006E6E656C3A0057534E2044657620416485
:101E7A00643A0020006572726F7200404A070011CE
:101E8A00001000AAAA5555A5A5C3B50000FFFFFF7B
:101E9A00FFFF5B01000000003305C20D00000000D7
:101EAA00C70796074F0758076D077E07000000000F
:0C1EBA00210DC20DD70CF30CE30C110D30
:00000001FF
